{
  "contractName": "AuditManagement",
  "abi": [
    {
      "anonymous": false,
      "inputs": [
        {
          "indexed": true,
          "internalType": "address",
          "name": "previousOwner",
          "type": "address"
        },
        {
          "indexed": true,
          "internalType": "address",
          "name": "newOwner",
          "type": "address"
        }
      ],
      "name": "OwnershipTransferred",
      "type": "event"
    },
    {
      "inputs": [],
      "name": "owner",
      "outputs": [
        {
          "internalType": "address",
          "name": "",
          "type": "address"
        }
      ],
      "stateMutability": "view",
      "type": "function",
      "constant": true
    },
    {
      "inputs": [],
      "name": "renounceOwnership",
      "outputs": [],
      "stateMutability": "nonpayable",
      "type": "function"
    },
    {
      "inputs": [
        {
          "internalType": "address",
          "name": "newOwner",
          "type": "address"
        }
      ],
      "name": "transferOwnership",
      "outputs": [],
      "stateMutability": "nonpayable",
      "type": "function"
    },
    {
      "inputs": [
        {
          "internalType": "string",
          "name": "establishmentID",
          "type": "string"
        },
        {
          "internalType": "address",
          "name": "owner",
          "type": "address"
        }
      ],
      "name": "AddEstablishment",
      "outputs": [
        {
          "internalType": "bool",
          "name": "success",
          "type": "bool"
        }
      ],
      "stateMutability": "nonpayable",
      "type": "function"
    },
    {
      "inputs": [
        {
          "internalType": "address",
          "name": "owner",
          "type": "address"
        }
      ],
      "name": "getStablishmentID",
      "outputs": [
        {
          "internalType": "string",
          "name": "",
          "type": "string"
        }
      ],
      "stateMutability": "view",
      "type": "function",
      "constant": true
    },
    {
      "inputs": [
        {
          "internalType": "string",
          "name": "establishmentID",
          "type": "string"
        },
        {
          "internalType": "string",
          "name": "documentId",
          "type": "string"
        },
        {
          "internalType": "string",
          "name": "documentData",
          "type": "string"
        }
      ],
      "name": "registerAudit",
      "outputs": [
        {
          "internalType": "bool",
          "name": "",
          "type": "bool"
        }
      ],
      "stateMutability": "nonpayable",
      "type": "function"
    },
    {
      "inputs": [
        {
          "internalType": "string",
          "name": "establishmentID",
          "type": "string"
        },
        {
          "internalType": "string",
          "name": "documentId",
          "type": "string"
        }
      ],
      "name": "auditDocument",
      "outputs": [
        {
          "internalType": "bytes32",
          "name": "",
          "type": "bytes32"
        }
      ],
      "stateMutability": "view",
      "type": "function",
      "constant": true
    },
    {
      "inputs": [],
      "name": "getDeployedChildContracts",
      "outputs": [
        {
          "internalType": "address[]",
          "name": "",
          "type": "address[]"
        }
      ],
      "stateMutability": "view",
      "type": "function",
      "constant": true
    },
    {
      "inputs": [],
      "name": "listEstablishments",
      "outputs": [
        {
          "internalType": "string[]",
          "name": "",
          "type": "string[]"
        }
      ],
      "stateMutability": "view",
      "type": "function",
      "constant": true
    }
  ],
  "bytecode": "0x608060405234801561001057600080fd5b5061002d61002261003260201b60201c565b61003a60201b60201c565b6100fe565b600033905090565b60008060009054906101000a900473ffffffffffffffffffffffffffffffffffffffff169050816000806101000a81548173ffffffffffffffffffffffffffffffffffffffff021916908373ffffffffffffffffffffffffffffffffffffffff1602179055508173ffffffffffffffffffffffffffffffffffffffff168173ffffffffffffffffffffffffffffffffffffffff167f8be0079c531659141344cd1fd0a4f28419497f9722a3daafe3b4186f6b6457e060405160405180910390a35050565b61316a8061010d6000396000f3fe60806040523480156200001157600080fd5b5060043610620000a05760003560e01c80638da5cb5b116200006f5780638da5cb5b146200012b578063a25c95c5146200014d578063d13b595f1462000183578063dfd469b114620001b9578063f2fde38b14620001ef57620000a0565b8063361fe48914620000a5578063527596bf14620000db578063715018a614620000fd5780638287545f1462000109575b600080fd5b620000c36004803603810190620000bd919062000d50565b6200020f565b604051620000d2919062000df0565b60405180910390f35b620000e562000389565b604051620000f4919062000f0f565b60405180910390f35b6200010762000419565b005b6200011362000431565b60405162000122919062001096565b60405180910390f35b6200013562000514565b604051620001449190620010cb565b60405180910390f35b6200016b6004803603810190620001659190620010e8565b6200053d565b6040516200017a9190620011be565b60405180910390f35b620001a160048036038101906200019b91906200120c565b620006c8565b604051620001b09190620011be565b60405180910390f35b620001d76004803603810190620001d1919062001272565b62000918565b604051620001e69190620012f6565b60405180910390f35b6200020d600480360381019062000207919062001272565b620009f1565b005b60008073ffffffffffffffffffffffffffffffffffffffff166003846040516200023a91906200135c565b908152602001604051809103902060009054906101000a900473ffffffffffffffffffffffffffffffffffffffff1673ffffffffffffffffffffffffffffffffffffffff1603620002c2576040517f08c379a0000000000000000000000000000000000000000000000000000000008152600401620002b990620013c5565b60405180910390fd5b600383604051620002d491906200135c565b908152602001604051809103902060009054906101000a900473ffffffffffffffffffffffffffffffffffffffff1673ffffffffffffffffffffffffffffffffffffffff1663da4c931a836040518263ffffffff1660e01b81526004016200033d9190620012f6565b602060405180830381865afa1580156200035b573d6000803e3d6000fd5b505050506040513d601f19601f8201168201806040525081019062000381919062001418565b905092915050565b606060018054806020026020016040519081016040528092919081815260200182805480156200040f57602002820191906000526020600020905b8160009054906101000a900473ffffffffffffffffffffffffffffffffffffffff1673ffffffffffffffffffffffffffffffffffffffff1681526020019060010190808311620003c4575b5050505050905090565b6200042362000a7b565b6200042f600062000b00565b565b60606002805480602002602001604051908101604052809291908181526020016000905b828210156200050b578382906000526020600020018054620004779062001479565b80601f0160208091040260200160405190810160405280929190818152602001828054620004a59062001479565b8015620004f65780601f10620004ca57610100808354040283529160200191620004f6565b820191906000526020600020905b815481529060010190602001808311620004d857829003601f168201915b50505050508152602001906001019062000455565b50505050905090565b60008060009054906101000a900473ffffffffffffffffffffffffffffffffffffffff16905090565b60008073ffffffffffffffffffffffffffffffffffffffff166003856040516200056891906200135c565b908152602001604051809103902060009054906101000a900473ffffffffffffffffffffffffffffffffffffffff1673ffffffffffffffffffffffffffffffffffffffff1603620005f0576040517f08c379a0000000000000000000000000000000000000000000000000000000008152600401620005e7906200154a565b60405180910390fd5b6003846040516200060291906200135c565b908152602001604051809103902060009054906101000a900473ffffffffffffffffffffffffffffffffffffffff1673ffffffffffffffffffffffffffffffffffffffff1663b177e8b5848480519060200120336040518463ffffffff1660e01b815260040162000676939291906200156c565b6020604051808303816000875af115801562000696573d6000803e3d6000fd5b505050506040513d601f19601f82011682018060405250810190620006bc9190620015e1565b50600190509392505050565b6000620006d462000a7b565b600073ffffffffffffffffffffffffffffffffffffffff16600384604051620006fe91906200135c565b908152602001604051809103902060009054906101000a900473ffffffffffffffffffffffffffffffffffffffff1673ffffffffffffffffffffffffffffffffffffffff161462000786576040517f08c379a00000000000000000000000000000000000000000000000000000000081526004016200077d9062001689565b60405180910390fd5b60008333604051620007989062000bcc565b620007a5929190620016ab565b604051809103906000f080158015620007c2573d6000803e3d6000fd5b5090506001819080600181540180825580915050600190039060005260206000200160009091909190916101000a81548173ffffffffffffffffffffffffffffffffffffffff021916908373ffffffffffffffffffffffffffffffffffffffff1602179055506002849080600181540180825580915050600190039060005260206000200160009091909190915090816200085e9190620018bb565b50806003856040516200087291906200135c565b908152602001604051809103902060006101000a81548173ffffffffffffffffffffffffffffffffffffffff021916908373ffffffffffffffffffffffffffffffffffffffff16021790555083600460008573ffffffffffffffffffffffffffffffffffffffff1673ffffffffffffffffffffffffffffffffffffffff16815260200190815260200160002090816200090c9190620018bb565b50600191505092915050565b6060600460008373ffffffffffffffffffffffffffffffffffffffff1673ffffffffffffffffffffffffffffffffffffffff1681526020019081526020016000208054620009669062001479565b80601f0160208091040260200160405190810160405280929190818152602001828054620009949062001479565b8015620009e55780601f10620009b957610100808354040283529160200191620009e5565b820191906000526020600020905b815481529060010190602001808311620009c757829003601f168201915b50505050509050919050565b620009fb62000a7b565b600073ffffffffffffffffffffffffffffffffffffffff168173ffffffffffffffffffffffffffffffffffffffff160362000a6d576040517f08c379a000000000000000000000000000000000000000000000000000000000815260040162000a649062001a18565b60405180910390fd5b62000a788162000b00565b50565b62000a8562000bc4565b73ffffffffffffffffffffffffffffffffffffffff1662000aa562000514565b73ffffffffffffffffffffffffffffffffffffffff161462000afe576040517f08c379a000000000000000000000000000000000000000000000000000000000815260040162000af59062001a8a565b60405180910390fd5b565b60008060009054906101000a900473ffffffffffffffffffffffffffffffffffffffff169050816000806101000a81548173ffffffffffffffffffffffffffffffffffffffff021916908373ffffffffffffffffffffffffffffffffffffffff1602179055508173ffffffffffffffffffffffffffffffffffffffff168173ffffffffffffffffffffffffffffffffffffffff167f8be0079c531659141344cd1fd0a4f28419497f9722a3daafe3b4186f6b6457e060405160405180910390a35050565b600033905090565b6116888062001aad83390190565b6000604051905090565b600080fd5b600080fd5b600080fd5b600080fd5b6000601f19601f8301169050919050565b7f4e487b7100000000000000000000000000000000000000000000000000000000600052604160045260246000fd5b62000c438262000bf8565b810181811067ffffffffffffffff8211171562000c655762000c6462000c09565b5b80604052505050565b600062000c7a62000bda565b905062000c88828262000c38565b919050565b600067ffffffffffffffff82111562000cab5762000caa62000c09565b5b62000cb68262000bf8565b9050602081019050919050565b82818337600083830152505050565b600062000ce962000ce38462000c8d565b62000c6e565b90508281526020810184848401111562000d085762000d0762000bf3565b5b62000d1584828562000cc3565b509392505050565b600082601f83011262000d355762000d3462000bee565b5b813562000d4784826020860162000cd2565b91505092915050565b6000806040838503121562000d6a5762000d6962000be4565b5b600083013567ffffffffffffffff81111562000d8b5762000d8a62000be9565b5b62000d998582860162000d1d565b925050602083013567ffffffffffffffff81111562000dbd5762000dbc62000be9565b5b62000dcb8582860162000d1d565b9150509250929050565b6000819050919050565b62000dea8162000dd5565b82525050565b600060208201905062000e07600083018462000ddf565b92915050565b600081519050919050565b600082825260208201905092915050565b6000819050602082019050919050565b600073ffffffffffffffffffffffffffffffffffffffff82169050919050565b600062000e668262000e39565b9050919050565b62000e788162000e59565b82525050565b600062000e8c838362000e6d565b60208301905092915050565b6000602082019050919050565b600062000eb28262000e0d565b62000ebe818562000e18565b935062000ecb8362000e29565b8060005b8381101562000f0257815162000ee6888262000e7e565b975062000ef38362000e98565b92505060018101905062000ecf565b5085935050505092915050565b6000602082019050818103600083015262000f2b818462000ea5565b905092915050565b600081519050919050565b600082825260208201905092915050565b6000819050602082019050919050565b600081519050919050565b600082825260208201905092915050565b60005b8381101562000f9b57808201518184015260208101905062000f7e565b8381111562000fab576000848401525b50505050565b600062000fbe8262000f5f565b62000fca818562000f6a565b935062000fdc81856020860162000f7b565b62000fe78162000bf8565b840191505092915050565b600062001000838362000fb1565b905092915050565b6000602082019050919050565b6000620010228262000f33565b6200102e818562000f3e565b935083602082028501620010428562000f4f565b8060005b8581101562001084578484038952815162001062858262000ff2565b94506200106f8362001008565b925060208a0199505060018101905062001046565b50829750879550505050505092915050565b60006020820190508181036000830152620010b2818462001015565b905092915050565b620010c58162000e59565b82525050565b6000602082019050620010e26000830184620010ba565b92915050565b60008060006060848603121562001104576200110362000be4565b5b600084013567ffffffffffffffff81111562001125576200112462000be9565b5b620011338682870162000d1d565b935050602084013567ffffffffffffffff81111562001157576200115662000be9565b5b620011658682870162000d1d565b925050604084013567ffffffffffffffff81111562001189576200118862000be9565b5b620011978682870162000d1d565b9150509250925092565b60008115159050919050565b620011b881620011a1565b82525050565b6000602082019050620011d56000830184620011ad565b92915050565b620011e68162000e59565b8114620011f257600080fd5b50565b6000813590506200120681620011db565b92915050565b6000806040838503121562001226576200122562000be4565b5b600083013567ffffffffffffffff81111562001247576200124662000be9565b5b620012558582860162000d1d565b92505060206200126885828601620011f5565b9150509250929050565b6000602082840312156200128b576200128a62000be4565b5b60006200129b84828501620011f5565b91505092915050565b600082825260208201905092915050565b6000620012c28262000f5f565b620012ce8185620012a4565b9350620012e081856020860162000f7b565b620012eb8162000bf8565b840191505092915050565b60006020820190508181036000830152620013128184620012b5565b905092915050565b600081905092915050565b6000620013328262000f5f565b6200133e81856200131a565b93506200135081856020860162000f7b565b80840191505092915050565b60006200136a828462001325565b915081905092915050565b7f45737461626c6973686d656e7420646f65736e742065786973742e0000000000600082015250565b6000620013ad601b83620012a4565b9150620013ba8262001375565b602082019050919050565b60006020820190508181036000830152620013e0816200139e565b9050919050565b620013f28162000dd5565b8114620013fe57600080fd5b50565b6000815190506200141281620013e7565b92915050565b60006020828403121562001431576200143062000be4565b5b6000620014418482850162001401565b91505092915050565b7f4e487b7100000000000000000000000000000000000000000000000000000000600052602260045260246000fd5b600060028204905060018216806200149257607f821691505b602082108103620014a857620014a76200144a565b5b50919050565b7f436f756c64206e6f74207265676973746572204175646974205265636f72642060008201527f626563617573652045737461626c6973686d656e7420646f65736e742065786960208201527f7374000000000000000000000000000000000000000000000000000000000000604082015250565b600062001532604283620012a4565b91506200153f82620014ae565b606082019050919050565b60006020820190508181036000830152620015658162001523565b9050919050565b60006060820190508181036000830152620015888186620012b5565b905062001599602083018562000ddf565b620015a86040830184620010ba565b949350505050565b620015bb81620011a1565b8114620015c757600080fd5b50565b600081519050620015db81620015b0565b92915050565b600060208284031215620015fa57620015f962000be4565b5b60006200160a84828501620015ca565b91505092915050565b7f45737461626c6973686d656e7420616c6c72656164792072656769737465726560008201527f6400000000000000000000000000000000000000000000000000000000000000602082015250565b600062001671602183620012a4565b91506200167e8262001613565b604082019050919050565b60006020820190508181036000830152620016a48162001662565b9050919050565b60006040820190508181036000830152620016c78185620012b5565b9050620016d86020830184620010ba565b9392505050565b60008190508160005260206000209050919050565b60006020601f8301049050919050565b600082821b905092915050565b600060088302620017437fffffffffffffffffffffffffffffffffffffffffffffffffffffffffffffffff8262001704565b6200174f868362001704565b95508019841693508086168417925050509392505050565b6000819050919050565b6000819050919050565b60006200179c62001796620017908462001767565b62001771565b62001767565b9050919050565b6000819050919050565b620017b8836200177b565b620017d0620017c782620017a3565b84845462001711565b825550505050565b600090565b620017e7620017d8565b620017f4818484620017ad565b505050565b5b818110156200181c5762001810600082620017dd565b600181019050620017fa565b5050565b601f8211156200186b576200183581620016df565b6200184084620016f4565b8101602085101562001850578190505b620018686200185f85620016f4565b830182620017f9565b50505b505050565b600082821c905092915050565b6000620018906000198460080262001870565b1980831691505092915050565b6000620018ab83836200187d565b9150826002028217905092915050565b620018c68262000f5f565b67ffffffffffffffff811115620018e257620018e162000c09565b5b620018ee825462001479565b620018fb82828562001820565b600060209050601f8311600181146200193357600084156200191e578287015190505b6200192a85826200189d565b8655506200199a565b601f1984166200194386620016df565b60005b828110156200196d5784890151825560018201915060208501945060208101905062001946565b868310156200198d578489015162001989601f8916826200187d565b8355505b6001600288020188555050505b505050505050565b7f4f776e61626c653a206e6577206f776e657220697320746865207a65726f206160008201527f6464726573730000000000000000000000000000000000000000000000000000602082015250565b600062001a00602683620012a4565b915062001a0d82620019a2565b604082019050919050565b6000602082019050818103600083015262001a3381620019f1565b9050919050565b7f4f776e61626c653a2063616c6c6572206973206e6f7420746865206f776e6572600082015250565b600062001a72602083620012a4565b915062001a7f8262001a3a565b602082019050919050565b6000602082019050818103600083015262001aa58162001a63565b905091905056fe60806040523480156200001157600080fd5b5060405162001688380380620016888339818101604052810190620000379190620004a0565b620000576200004b6200008260201b60201c565b6200008a60201b60201c565b816001908162000068919062000751565b506200007a816200014e60201b60201c565b505062000953565b600033905090565b60008060009054906101000a900473ffffffffffffffffffffffffffffffffffffffff169050816000806101000a81548173ffffffffffffffffffffffffffffffffffffffff021916908373ffffffffffffffffffffffffffffffffffffffff1602179055508173ffffffffffffffffffffffffffffffffffffffff168173ffffffffffffffffffffffffffffffffffffffff167f8be0079c531659141344cd1fd0a4f28419497f9722a3daafe3b4186f6b6457e060405160405180910390a35050565b6200015e620001e460201b60201c565b600073ffffffffffffffffffffffffffffffffffffffff168173ffffffffffffffffffffffffffffffffffffffff1603620001d0576040517f08c379a0000000000000000000000000000000000000000000000000000000008152600401620001c790620008bf565b60405180910390fd5b620001e1816200008a60201b60201c565b50565b620001f46200008260201b60201c565b73ffffffffffffffffffffffffffffffffffffffff166200021a6200027560201b60201c565b73ffffffffffffffffffffffffffffffffffffffff161462000273576040517f08c379a00000000000000000000000000000000000000000000000000000000081526004016200026a9062000931565b60405180910390fd5b565b60008060009054906101000a900473ffffffffffffffffffffffffffffffffffffffff16905090565b6000604051905090565b600080fd5b600080fd5b600080fd5b600080fd5b6000601f19601f8301169050919050565b7f4e487b7100000000000000000000000000000000000000000000000000000000600052604160045260246000fd5b6200030782620002bc565b810181811067ffffffffffffffff82111715620003295762000328620002cd565b5b80604052505050565b60006200033e6200029e565b90506200034c8282620002fc565b919050565b600067ffffffffffffffff8211156200036f576200036e620002cd565b5b6200037a82620002bc565b9050602081019050919050565b60005b83811015620003a75780820151818401526020810190506200038a565b83811115620003b7576000848401525b50505050565b6000620003d4620003ce8462000351565b62000332565b905082815260208101848484011115620003f357620003f2620002b7565b5b6200040084828562000387565b509392505050565b600082601f83011262000420576200041f620002b2565b5b815162000432848260208601620003bd565b91505092915050565b600073ffffffffffffffffffffffffffffffffffffffff82169050919050565b600062000468826200043b565b9050919050565b6200047a816200045b565b81146200048657600080fd5b50565b6000815190506200049a816200046f565b92915050565b60008060408385031215620004ba57620004b9620002a8565b5b600083015167ffffffffffffffff811115620004db57620004da620002ad565b5b620004e98582860162000408565b9250506020620004fc8582860162000489565b9150509250929050565b600081519050919050565b7f4e487b7100000000000000000000000000000000000000000000000000000000600052602260045260246000fd5b600060028204905060018216806200055957607f821691505b6020821081036200056f576200056e62000511565b5b50919050565b60008190508160005260206000209050919050565b60006020601f8301049050919050565b600082821b905092915050565b600060088302620005d97fffffffffffffffffffffffffffffffffffffffffffffffffffffffffffffffff826200059a565b620005e586836200059a565b95508019841693508086168417925050509392505050565b6000819050919050565b6000819050919050565b6000620006326200062c6200062684620005fd565b62000607565b620005fd565b9050919050565b6000819050919050565b6200064e8362000611565b620006666200065d8262000639565b848454620005a7565b825550505050565b600090565b6200067d6200066e565b6200068a81848462000643565b505050565b5b81811015620006b257620006a660008262000673565b60018101905062000690565b5050565b601f8211156200070157620006cb8162000575565b620006d6846200058a565b81016020851015620006e6578190505b620006fe620006f5856200058a565b8301826200068f565b50505b505050565b600082821c905092915050565b6000620007266000198460080262000706565b1980831691505092915050565b600062000741838362000713565b9150826002028217905092915050565b6200075c8262000506565b67ffffffffffffffff811115620007785762000777620002cd565b5b62000784825462000540565b62000791828285620006b6565b600060209050601f831160018114620007c95760008415620007b4578287015190505b620007c0858262000733565b86555062000830565b601f198416620007d98662000575565b60005b828110156200080357848901518255600182019150602085019450602081019050620007dc565b868310156200082357848901516200081f601f89168262000713565b8355505b6001600288020188555050505b505050505050565b600082825260208201905092915050565b7f4f776e61626c653a206e6577206f776e657220697320746865207a65726f206160008201527f6464726573730000000000000000000000000000000000000000000000000000602082015250565b6000620008a760268362000838565b9150620008b48262000849565b604082019050919050565b60006020820190508181036000830152620008da8162000898565b9050919050565b7f4f776e61626c653a2063616c6c6572206973206e6f7420746865206f776e6572600082015250565b60006200091960208362000838565b91506200092682620008e1565b602082019050919050565b600060208201905081810360008301526200094c816200090a565b9050919050565b610d2580620009636000396000f3fe608060405234801561001057600080fd5b506004361061007d5760003560e01c8063b177e8b51161005b578063b177e8b5146100da578063c97d1a7a1461010a578063da4c931a14610128578063f2fde38b146101585761007d565b806368e9b6dc14610082578063715018a6146100b25780638da5cb5b146100bc575b600080fd5b61009c60048036038101906100979190610727565b610174565b6040516100a99190610789565b60405180910390f35b6100ba6101a2565b005b6100c46101b6565b6040516100d191906107e5565b60405180910390f35b6100f460048036038101906100ef9190610858565b6101df565b60405161010191906108e2565b60405180910390f35b6101126102e7565b60405161011f9190610985565b60405180910390f35b610142600480360381019061013d9190610727565b610375565b60405161014f9190610789565b60405180910390f35b610172600480360381019061016d91906109a7565b610400565b005b6002818051602081018201805184825260208301602085012081835280955050505050506000915090505481565b6101aa610483565b6101b46000610501565b565b60008060009054906101000a900473ffffffffffffffffffffffffffffffffffffffff16905090565b60008173ffffffffffffffffffffffffffffffffffffffff166102006101b6565b73ffffffffffffffffffffffffffffffffffffffff1614610256576040517f08c379a000000000000000000000000000000000000000000000000000000000815260040161024d90610a46565b60405180910390fd5b6000801b60028560405161026a9190610aa2565b908152602001604051809103902054146102b9576040517f08c379a00000000000000000000000000000000000000000000000000000000081526004016102b090610b05565b60405180910390fd5b826002856040516102ca9190610aa2565b908152602001604051809103902081905550600190509392505050565b600180546102f490610b54565b80601f016020809104026020016040519081016040528092919081815260200182805461032090610b54565b801561036d5780601f106103425761010080835404028352916020019161036d565b820191906000526020600020905b81548152906001019060200180831161035057829003601f168201915b505050505081565b60008060001b60028360405161038b9190610aa2565b908152602001604051809103902054036103da576040517f08c379a00000000000000000000000000000000000000000000000000000000081526004016103d190610bd1565b60405180910390fd5b6002826040516103ea9190610aa2565b9081526020016040518091039020549050919050565b610408610483565b600073ffffffffffffffffffffffffffffffffffffffff168173ffffffffffffffffffffffffffffffffffffffff1603610477576040517f08c379a000000000000000000000000000000000000000000000000000000000815260040161046e90610c63565b60405180910390fd5b61048081610501565b50565b61048b6105c5565b73ffffffffffffffffffffffffffffffffffffffff166104a96101b6565b73ffffffffffffffffffffffffffffffffffffffff16146104ff576040517f08c379a00000000000000000000000000000000000000000000000000000000081526004016104f690610ccf565b60405180910390fd5b565b60008060009054906101000a900473ffffffffffffffffffffffffffffffffffffffff169050816000806101000a81548173ffffffffffffffffffffffffffffffffffffffff021916908373ffffffffffffffffffffffffffffffffffffffff1602179055508173ffffffffffffffffffffffffffffffffffffffff168173ffffffffffffffffffffffffffffffffffffffff167f8be0079c531659141344cd1fd0a4f28419497f9722a3daafe3b4186f6b6457e060405160405180910390a35050565b600033905090565b6000604051905090565b600080fd5b600080fd5b600080fd5b600080fd5b6000601f19601f8301169050919050565b7f4e487b7100000000000000000000000000000000000000000000000000000000600052604160045260246000fd5b610634826105eb565b810181811067ffffffffffffffff82111715610653576106526105fc565b5b80604052505050565b60006106666105cd565b9050610672828261062b565b919050565b600067ffffffffffffffff821115610692576106916105fc565b5b61069b826105eb565b9050602081019050919050565b82818337600083830152505050565b60006106ca6106c584610677565b61065c565b9050828152602081018484840111156106e6576106e56105e6565b5b6106f18482856106a8565b509392505050565b600082601f83011261070e5761070d6105e1565b5b813561071e8482602086016106b7565b91505092915050565b60006020828403121561073d5761073c6105d7565b5b600082013567ffffffffffffffff81111561075b5761075a6105dc565b5b610767848285016106f9565b91505092915050565b6000819050919050565b61078381610770565b82525050565b600060208201905061079e600083018461077a565b92915050565b600073ffffffffffffffffffffffffffffffffffffffff82169050919050565b60006107cf826107a4565b9050919050565b6107df816107c4565b82525050565b60006020820190506107fa60008301846107d6565b92915050565b61080981610770565b811461081457600080fd5b50565b60008135905061082681610800565b92915050565b610835816107c4565b811461084057600080fd5b50565b6000813590506108528161082c565b92915050565b600080600060608486031215610871576108706105d7565b5b600084013567ffffffffffffffff81111561088f5761088e6105dc565b5b61089b868287016106f9565b93505060206108ac86828701610817565b92505060406108bd86828701610843565b9150509250925092565b60008115159050919050565b6108dc816108c7565b82525050565b60006020820190506108f760008301846108d3565b92915050565b600081519050919050565b600082825260208201905092915050565b60005b8381101561093757808201518184015260208101905061091c565b83811115610946576000848401525b50505050565b6000610957826108fd565b6109618185610908565b9350610971818560208601610919565b61097a816105eb565b840191505092915050565b6000602082019050818103600083015261099f818461094c565b905092915050565b6000602082840312156109bd576109bc6105d7565b5b60006109cb84828501610843565b91505092915050565b7f4f6e6c79206f776e65722063616e207265676973746572206120446f63756d6560008201527f6e74000000000000000000000000000000000000000000000000000000000000602082015250565b6000610a30602283610908565b9150610a3b826109d4565b604082019050919050565b60006020820190508181036000830152610a5f81610a23565b9050919050565b600081905092915050565b6000610a7c826108fd565b610a868185610a66565b9350610a96818560208601610919565b80840191505092915050565b6000610aae8284610a71565b915081905092915050565b7f446f63756d656e7420616c6c7265616479207265676973746572656400000000600082015250565b6000610aef601c83610908565b9150610afa82610ab9565b602082019050919050565b60006020820190508181036000830152610b1e81610ae2565b9050919050565b7f4e487b7100000000000000000000000000000000000000000000000000000000600052602260045260246000fd5b60006002820490506001821680610b6c57607f821691505b602082108103610b7f57610b7e610b25565b5b50919050565b7f446f63756d656e7420646f65736e742065786973740000000000000000000000600082015250565b6000610bbb601583610908565b9150610bc682610b85565b602082019050919050565b60006020820190508181036000830152610bea81610bae565b9050919050565b7f4f776e61626c653a206e6577206f776e657220697320746865207a65726f206160008201527f6464726573730000000000000000000000000000000000000000000000000000602082015250565b6000610c4d602683610908565b9150610c5882610bf1565b604082019050919050565b60006020820190508181036000830152610c7c81610c40565b9050919050565b7f4f776e61626c653a2063616c6c6572206973206e6f7420746865206f776e6572600082015250565b6000610cb9602083610908565b9150610cc482610c83565b602082019050919050565b60006020820190508181036000830152610ce881610cac565b905091905056fea2646970667358221220933dc9e123a98a64b7e89a8b0fdb7526acfeeddefe8b074b6dfc587e5a21562864736f6c634300080f0033a264697066735822122082109ea60bc611bed503bbd4596c43d10608fb62fd9717b010b57b8cc79d37ac64736f6c634300080f0033",
  "immutableReferences": {},
  "source": "// SPDX-License-Identifier: GPL-3.0\r\npragma solidity ^0.8.4;\r\n\r\n\r\nimport \"@openzeppelin/contracts/access/Ownable.sol\";\r\n\r\ncontract EstablishmentAudit is Ownable{\r\n\r\n   \r\n  /**\r\n    * @dev Establishment Identifier, name or CIF or Whatever\r\n    *  \r\n    */\r\n  string public EstablishmentId;\r\n\r\n  // Mapping from Document Id as string representation to Hash of Document content\r\n  mapping(string=>bytes32) public AuditLogs;\r\n   \r\n \r\n  constructor (string memory _establishmentId, address owner) {\r\n      EstablishmentId = _establishmentId;\r\n      transferOwnership(owner);\r\n  }\r\n  \r\n  /**\r\n    * @dev Register a document into the Audit\r\n    *  \r\n    */\r\n  function registerDocument(string memory documentId , bytes32 documentHash , address contractOwner) public returns(bool) {\r\n    require(  owner() == contractOwner ,  \"Only owner can register a Document\");\r\n\t  require(  AuditLogs[documentId] == 0 ,  \"Document allready registered\");\r\n    AuditLogs[documentId] = documentHash;\r\n    return true;\r\n  }\r\n\t\r\n\t\r\n  /**\r\n    * @dev Retrieve the hash of a document content for a specific Document Id\r\n    *  \r\n    */\r\n\tfunction getDocumentContentHash(string memory documentId ) public view returns(bytes32) {\r\n      require( AuditLogs[documentId] != 0,  \"Document doesnt exist\");\r\n\t\t  return AuditLogs[documentId];\r\n    }\r\n\t\r\n}\r\n\r\n\r\ncontract AuditManagement is Ownable{\r\n\r\n   \r\n   address[] private establishmentAudit;\r\n   string[]  private establishmentIds; \r\n   mapping(string=>address) private addressEstablishments;\r\n   mapping(address=>string) private addressIDEstablishments;\r\n\r\n   /**\r\n    * @dev Add an establishment to Audit\r\n    */\r\n\r\n   function AddEstablishment(string memory establishmentID ,address owner ) public onlyOwner returns (bool success) {\r\n\t\trequire(addressEstablishments[establishmentID] == address(0), \"Establishment allready registered\");\r\n\t\taddress newEstablishment = address(new EstablishmentAudit(establishmentID,msg.sender));            \r\n\t\testablishmentAudit.push(newEstablishment);\r\n      establishmentIds.push(establishmentID);\r\n\t\taddressEstablishments[establishmentID] = newEstablishment;\r\n      addressIDEstablishments[owner] = establishmentID;\r\n\t\treturn true;\r\n    }\r\n   \r\n\r\n   /**\r\n    * @dev Get establishment Id for a address\r\n    */\r\n   function getStablishmentID(address owner ) public view returns (string memory) {\r\n        return addressIDEstablishments[owner];\r\n   }\r\n\r\n   /**\r\n    * @dev Add  an Audit Record \r\n    */\r\n  function registerAudit( string memory establishmentID , string memory documentId , string memory documentData ) public returns(bool) {\r\n\t require(addressEstablishments[establishmentID] != address(0), \"Could not register Audit Record because Establishment doesnt exist\");\r\n    EstablishmentAudit(addressEstablishments[establishmentID]).registerDocument(documentId,keccak256(bytes(documentData)),msg.sender);\r\n    return true;\r\n  }\r\n\r\n  \r\n   /**\r\n    * @dev Audit Record \r\n    */\r\n  function auditDocument( string memory establishmentID , string memory documentId ) public view  returns(bytes32) {\r\n\t require(addressEstablishments[establishmentID] != address(0), \"Establishment doesnt exist.\");\r\n    return EstablishmentAudit(addressEstablishments[establishmentID]).getDocumentContentHash(documentId);\r\n   }\r\n\r\n   /**\r\n    * @dev List the Deployed Contracts\r\n    */\r\n   function getDeployedChildContracts() public view returns (address[] memory) {\r\n      return establishmentAudit;\r\n   }\r\n\r\n  /**\r\n    * @dev List all Establishments\r\n    */\r\n   function listEstablishments() public view returns (string[] memory) {\r\n        return establishmentIds;\r\n   }\r\n}\r\n\r\n\r\n",
  "sourcePath": "C:\\Users\\herty\\Documents\\BlockChain\\Postgrado\\Proyecto Ethereum\\BSMWeb3Proyect\\contracts\\AuditManagement.sol",
  "compiler": {
    "name": "solc",
    "version": "0.8.15+commit.e14f2714.Emscripten.clang"
  },
  "schemaVersion": "3.4.8",
  "updatedAt": "2022-08-06T10:43:27.917Z",
  "networkType": "ethereum",
  "devdoc": {
    "kind": "dev",
    "methods": {
      "AddEstablishment(string,address)": {
        "details": "Add an establishment to Audit"
      },
      "auditDocument(string,string)": {
        "details": "Audit Record "
      },
      "getDeployedChildContracts()": {
        "details": "List the Deployed Contracts"
      },
      "getStablishmentID(address)": {
        "details": "Get establishment Id for a address"
      },
      "listEstablishments()": {
        "details": "List all Establishments"
      },
      "owner()": {
        "details": "Returns the address of the current owner."
      },
      "registerAudit(string,string,string)": {
        "details": "Add  an Audit Record "
      },
      "renounceOwnership()": {
        "details": "Leaves the contract without owner. It will not be possible to call `onlyOwner` functions anymore. Can only be called by the current owner. NOTE: Renouncing ownership will leave the contract without an owner, thereby removing any functionality that is only available to the owner."
      },
      "transferOwnership(address)": {
        "details": "Transfers ownership of the contract to a new account (`newOwner`). Can only be called by the current owner."
      }
    },
    "version": 1
  },
  "userdoc": {
    "kind": "user",
    "methods": {},
    "version": 1
  }
}