{
  "contractName": "AuditManagement",
  "abi": [
    {
      "anonymous": false,
      "inputs": [
        {
          "indexed": true,
          "internalType": "address",
          "name": "previousOwner",
          "type": "address"
        },
        {
          "indexed": true,
          "internalType": "address",
          "name": "newOwner",
          "type": "address"
        }
      ],
      "name": "OwnershipTransferred",
      "type": "event"
    },
    {
      "inputs": [],
      "name": "owner",
      "outputs": [
        {
          "internalType": "address",
          "name": "",
          "type": "address"
        }
      ],
      "stateMutability": "view",
      "type": "function",
      "constant": true
    },
    {
      "inputs": [],
      "name": "renounceOwnership",
      "outputs": [],
      "stateMutability": "nonpayable",
      "type": "function"
    },
    {
      "inputs": [
        {
          "internalType": "address",
          "name": "newOwner",
          "type": "address"
        }
      ],
      "name": "transferOwnership",
      "outputs": [],
      "stateMutability": "nonpayable",
      "type": "function"
    },
    {
      "inputs": [
        {
          "internalType": "string",
          "name": "a",
          "type": "string"
        },
        {
          "internalType": "string",
          "name": "b",
          "type": "string"
        }
      ],
      "name": "compareStrings",
      "outputs": [
        {
          "internalType": "bool",
          "name": "",
          "type": "bool"
        }
      ],
      "stateMutability": "pure",
      "type": "function",
      "constant": true
    },
    {
      "inputs": [
        {
          "internalType": "string",
          "name": "establishmentID",
          "type": "string"
        },
        {
          "internalType": "address",
          "name": "owner",
          "type": "address"
        }
      ],
      "name": "AddEstablishment",
      "outputs": [
        {
          "internalType": "bool",
          "name": "success",
          "type": "bool"
        }
      ],
      "stateMutability": "nonpayable",
      "type": "function"
    },
    {
      "inputs": [
        {
          "internalType": "address",
          "name": "owner",
          "type": "address"
        }
      ],
      "name": "getStablishmentID",
      "outputs": [
        {
          "internalType": "string",
          "name": "",
          "type": "string"
        }
      ],
      "stateMutability": "view",
      "type": "function",
      "constant": true
    },
    {
      "inputs": [
        {
          "internalType": "string",
          "name": "establishmentID",
          "type": "string"
        }
      ],
      "name": "getContractAddressFromEstablishmentId",
      "outputs": [
        {
          "internalType": "address",
          "name": "",
          "type": "address"
        }
      ],
      "stateMutability": "view",
      "type": "function",
      "constant": true
    },
    {
      "inputs": [
        {
          "internalType": "string",
          "name": "establishmentID",
          "type": "string"
        },
        {
          "internalType": "string",
          "name": "documentId",
          "type": "string"
        },
        {
          "internalType": "bytes32",
          "name": "documentHash",
          "type": "bytes32"
        }
      ],
      "name": "registerAudit",
      "outputs": [
        {
          "internalType": "bool",
          "name": "",
          "type": "bool"
        }
      ],
      "stateMutability": "nonpayable",
      "type": "function"
    },
    {
      "inputs": [
        {
          "internalType": "string",
          "name": "establishmentID",
          "type": "string"
        },
        {
          "internalType": "string",
          "name": "documentId",
          "type": "string"
        }
      ],
      "name": "auditDocument",
      "outputs": [
        {
          "internalType": "bytes32",
          "name": "",
          "type": "bytes32"
        }
      ],
      "stateMutability": "view",
      "type": "function",
      "constant": true
    },
    {
      "inputs": [],
      "name": "getDeployedChildContracts",
      "outputs": [
        {
          "internalType": "address[]",
          "name": "",
          "type": "address[]"
        }
      ],
      "stateMutability": "view",
      "type": "function",
      "constant": true
    },
    {
      "inputs": [],
      "name": "listEstablishments",
      "outputs": [
        {
          "internalType": "string[]",
          "name": "",
          "type": "string[]"
        }
      ],
      "stateMutability": "view",
      "type": "function",
      "constant": true
    }
  ],
  "bytecode": "0x608060405234801561001057600080fd5b5061002d61002261003260201b60201c565b61003a60201b60201c565b6100fe565b600033905090565b60008060009054906101000a900473ffffffffffffffffffffffffffffffffffffffff169050816000806101000a81548173ffffffffffffffffffffffffffffffffffffffff021916908373ffffffffffffffffffffffffffffffffffffffff1602179055508173ffffffffffffffffffffffffffffffffffffffff168173ffffffffffffffffffffffffffffffffffffffff167f8be0079c531659141344cd1fd0a4f28419497f9722a3daafe3b4186f6b6457e060405160405180910390a35050565b613534806200010e6000396000f3fe60806040523480156200001157600080fd5b5060043610620000b85760003560e01c80638fd7153f116200007b5780638fd7153f1462000165578063aa04abd9146200019b578063bed34bba14620001d1578063d13b595f1462000207578063dfd469b1146200023d578063f2fde38b146200027357620000b8565b8063361fe48914620000bd578063527596bf14620000f3578063715018a614620001155780638287545f14620001215780638da5cb5b1462000143575b600080fd5b620000db6004803603810190620000d5919062000fa7565b62000293565b604051620000ea919062001047565b60405180910390f35b620000fd6200040d565b6040516200010c919062001166565b60405180910390f35b6200011f6200049d565b005b6200012b620004b5565b6040516200013a9190620012ed565b60405180910390f35b6200014d62000598565b6040516200015c919062001322565b60405180910390f35b6200018360048036038101906200017d91906200133f565b620005c1565b60405162000192919062001322565b60405180910390f35b620001b96004803603810190620001b39190620013c1565b6200060b565b604051620001c8919062001478565b60405180910390f35b620001ef6004803603810190620001e9919062000fa7565b6200078f565b604051620001fe919062001478565b60405180910390f35b6200022560048036038101906200021f9190620014c6565b620007ec565b60405162000234919062001478565b60405180910390f35b6200025b60048036038101906200025591906200152c565b62000b6f565b6040516200026a9190620015b0565b60405180910390f35b6200029160048036038101906200028b91906200152c565b62000c48565b005b60008073ffffffffffffffffffffffffffffffffffffffff16600384604051620002be919062001616565b908152602001604051809103902060009054906101000a900473ffffffffffffffffffffffffffffffffffffffff1673ffffffffffffffffffffffffffffffffffffffff160362000346576040517f08c379a00000000000000000000000000000000000000000000000000000000081526004016200033d906200167f565b60405180910390fd5b60038360405162000358919062001616565b908152602001604051809103902060009054906101000a900473ffffffffffffffffffffffffffffffffffffffff1673ffffffffffffffffffffffffffffffffffffffff1663da4c931a836040518263ffffffff1660e01b8152600401620003c19190620015b0565b602060405180830381865afa158015620003df573d6000803e3d6000fd5b505050506040513d601f19601f82011682018060405250810190620004059190620016b8565b905092915050565b606060018054806020026020016040519081016040528092919081815260200182805480156200049357602002820191906000526020600020905b8160009054906101000a900473ffffffffffffffffffffffffffffffffffffffff1673ffffffffffffffffffffffffffffffffffffffff168152602001906001019080831162000448575b5050505050905090565b620004a762000cd2565b620004b3600062000d57565b565b60606002805480602002602001604051908101604052809291908181526020016000905b828210156200058f578382906000526020600020018054620004fb9062001719565b80601f0160208091040260200160405190810160405280929190818152602001828054620005299062001719565b80156200057a5780601f106200054e576101008083540402835291602001916200057a565b820191906000526020600020905b8154815290600101906020018083116200055c57829003601f168201915b505050505081526020019060010190620004d9565b50505050905090565b60008060009054906101000a900473ffffffffffffffffffffffffffffffffffffffff16905090565b6000600382604051620005d5919062001616565b908152602001604051809103902060009054906101000a900473ffffffffffffffffffffffffffffffffffffffff169050919050565b60008073ffffffffffffffffffffffffffffffffffffffff1660038560405162000636919062001616565b908152602001604051809103902060009054906101000a900473ffffffffffffffffffffffffffffffffffffffff1673ffffffffffffffffffffffffffffffffffffffff1603620006be576040517f08c379a0000000000000000000000000000000000000000000000000000000008152600401620006b590620017ea565b60405180910390fd5b600384604051620006d0919062001616565b908152602001604051809103902060009054906101000a900473ffffffffffffffffffffffffffffffffffffffff1673ffffffffffffffffffffffffffffffffffffffff1663b177e8b58484336040518463ffffffff1660e01b81526004016200073d939291906200180c565b6020604051808303816000875af11580156200075d573d6000803e3d6000fd5b505050506040513d601f19601f8201168201806040525081019062000783919062001881565b50600190509392505050565b600081604051602001620007a4919062001616565b6040516020818303038152906040528051906020012083604051602001620007cd919062001616565b6040516020818303038152906040528051906020012014905092915050565b6000620007f862000cd2565b600073ffffffffffffffffffffffffffffffffffffffff1660038460405162000822919062001616565b908152602001604051809103902060009054906101000a900473ffffffffffffffffffffffffffffffffffffffff1673ffffffffffffffffffffffffffffffffffffffff1614620008aa576040517f08c379a0000000000000000000000000000000000000000000000000000000008152600401620008a19062001929565b60405180910390fd5b6001151562000998600460008573ffffffffffffffffffffffffffffffffffffffff1673ffffffffffffffffffffffffffffffffffffffff1681526020019081526020016000208054620008fe9062001719565b80601f01602080910402602001604051908101604052809291908181526020018280546200092c9062001719565b80156200097d5780601f1062000951576101008083540402835291602001916200097d565b820191906000526020600020905b8154815290600101906020018083116200095f57829003601f168201915b5050505050604051806020016040528060008152506200078f565b151514620009dd576040517f08c379a0000000000000000000000000000000000000000000000000000000008152600401620009d490620019c1565b60405180910390fd5b60008333604051620009ef9062000e23565b620009fc929190620019e3565b604051809103906000f08015801562000a19573d6000803e3d6000fd5b5090506001819080600181540180825580915050600190039060005260206000200160009091909190916101000a81548173ffffffffffffffffffffffffffffffffffffffff021916908373ffffffffffffffffffffffffffffffffffffffff16021790555060028490806001815401808255809150506001900390600052602060002001600090919091909150908162000ab5919062001bf3565b508060038560405162000ac9919062001616565b908152602001604051809103902060006101000a81548173ffffffffffffffffffffffffffffffffffffffff021916908373ffffffffffffffffffffffffffffffffffffffff16021790555083600460008573ffffffffffffffffffffffffffffffffffffffff1673ffffffffffffffffffffffffffffffffffffffff168152602001908152602001600020908162000b63919062001bf3565b50600191505092915050565b6060600460008373ffffffffffffffffffffffffffffffffffffffff1673ffffffffffffffffffffffffffffffffffffffff168152602001908152602001600020805462000bbd9062001719565b80601f016020809104026020016040519081016040528092919081815260200182805462000beb9062001719565b801562000c3c5780601f1062000c105761010080835404028352916020019162000c3c565b820191906000526020600020905b81548152906001019060200180831162000c1e57829003601f168201915b50505050509050919050565b62000c5262000cd2565b600073ffffffffffffffffffffffffffffffffffffffff168173ffffffffffffffffffffffffffffffffffffffff160362000cc4576040517f08c379a000000000000000000000000000000000000000000000000000000000815260040162000cbb9062001d50565b60405180910390fd5b62000ccf8162000d57565b50565b62000cdc62000e1b565b73ffffffffffffffffffffffffffffffffffffffff1662000cfc62000598565b73ffffffffffffffffffffffffffffffffffffffff161462000d55576040517f08c379a000000000000000000000000000000000000000000000000000000000815260040162000d4c9062001dc2565b60405180910390fd5b565b60008060009054906101000a900473ffffffffffffffffffffffffffffffffffffffff169050816000806101000a81548173ffffffffffffffffffffffffffffffffffffffff021916908373ffffffffffffffffffffffffffffffffffffffff1602179055508173ffffffffffffffffffffffffffffffffffffffff168173ffffffffffffffffffffffffffffffffffffffff167f8be0079c531659141344cd1fd0a4f28419497f9722a3daafe3b4186f6b6457e060405160405180910390a35050565b600033905090565b61171a8062001de583390190565b6000604051905090565b600080fd5b600080fd5b600080fd5b600080fd5b6000601f19601f8301169050919050565b7f4e487b7100000000000000000000000000000000000000000000000000000000600052604160045260246000fd5b62000e9a8262000e4f565b810181811067ffffffffffffffff8211171562000ebc5762000ebb62000e60565b5b80604052505050565b600062000ed162000e31565b905062000edf828262000e8f565b919050565b600067ffffffffffffffff82111562000f025762000f0162000e60565b5b62000f0d8262000e4f565b9050602081019050919050565b82818337600083830152505050565b600062000f4062000f3a8462000ee4565b62000ec5565b90508281526020810184848401111562000f5f5762000f5e62000e4a565b5b62000f6c84828562000f1a565b509392505050565b600082601f83011262000f8c5762000f8b62000e45565b5b813562000f9e84826020860162000f29565b91505092915050565b6000806040838503121562000fc15762000fc062000e3b565b5b600083013567ffffffffffffffff81111562000fe25762000fe162000e40565b5b62000ff08582860162000f74565b925050602083013567ffffffffffffffff81111562001014576200101362000e40565b5b620010228582860162000f74565b9150509250929050565b6000819050919050565b62001041816200102c565b82525050565b60006020820190506200105e600083018462001036565b92915050565b600081519050919050565b600082825260208201905092915050565b6000819050602082019050919050565b600073ffffffffffffffffffffffffffffffffffffffff82169050919050565b6000620010bd8262001090565b9050919050565b620010cf81620010b0565b82525050565b6000620010e38383620010c4565b60208301905092915050565b6000602082019050919050565b6000620011098262001064565b6200111581856200106f565b9350620011228362001080565b8060005b83811015620011595781516200113d8882620010d5565b97506200114a83620010ef565b92505060018101905062001126565b5085935050505092915050565b60006020820190508181036000830152620011828184620010fc565b905092915050565b600081519050919050565b600082825260208201905092915050565b6000819050602082019050919050565b600081519050919050565b600082825260208201905092915050565b60005b83811015620011f2578082015181840152602081019050620011d5565b8381111562001202576000848401525b50505050565b60006200121582620011b6565b620012218185620011c1565b935062001233818560208601620011d2565b6200123e8162000e4f565b840191505092915050565b600062001257838362001208565b905092915050565b6000602082019050919050565b600062001279826200118a565b62001285818562001195565b9350836020820285016200129985620011a6565b8060005b85811015620012db5784840389528151620012b9858262001249565b9450620012c6836200125f565b925060208a019950506001810190506200129d565b50829750879550505050505092915050565b600060208201905081810360008301526200130981846200126c565b905092915050565b6200131c81620010b0565b82525050565b600060208201905062001339600083018462001311565b92915050565b60006020828403121562001358576200135762000e3b565b5b600082013567ffffffffffffffff81111562001379576200137862000e40565b5b620013878482850162000f74565b91505092915050565b6200139b816200102c565b8114620013a757600080fd5b50565b600081359050620013bb8162001390565b92915050565b600080600060608486031215620013dd57620013dc62000e3b565b5b600084013567ffffffffffffffff811115620013fe57620013fd62000e40565b5b6200140c8682870162000f74565b935050602084013567ffffffffffffffff81111562001430576200142f62000e40565b5b6200143e8682870162000f74565b92505060406200145186828701620013aa565b9150509250925092565b60008115159050919050565b62001472816200145b565b82525050565b60006020820190506200148f600083018462001467565b92915050565b620014a081620010b0565b8114620014ac57600080fd5b50565b600081359050620014c08162001495565b92915050565b60008060408385031215620014e057620014df62000e3b565b5b600083013567ffffffffffffffff81111562001501576200150062000e40565b5b6200150f8582860162000f74565b92505060206200152285828601620014af565b9150509250929050565b60006020828403121562001545576200154462000e3b565b5b60006200155584828501620014af565b91505092915050565b600082825260208201905092915050565b60006200157c82620011b6565b6200158881856200155e565b93506200159a818560208601620011d2565b620015a58162000e4f565b840191505092915050565b60006020820190508181036000830152620015cc81846200156f565b905092915050565b600081905092915050565b6000620015ec82620011b6565b620015f88185620015d4565b93506200160a818560208601620011d2565b80840191505092915050565b6000620016248284620015df565b915081905092915050565b7f45737461626c6973686d656e7420646f65736e742065786973742e0000000000600082015250565b600062001667601b836200155e565b915062001674826200162f565b602082019050919050565b600060208201905081810360008301526200169a8162001658565b9050919050565b600081519050620016b28162001390565b92915050565b600060208284031215620016d157620016d062000e3b565b5b6000620016e184828501620016a1565b91505092915050565b7f4e487b7100000000000000000000000000000000000000000000000000000000600052602260045260246000fd5b600060028204905060018216806200173257607f821691505b602082108103620017485762001747620016ea565b5b50919050565b7f436f756c64206e6f74207265676973746572204175646974205265636f72642060008201527f626563617573652045737461626c6973686d656e7420646f65736e742065786960208201527f7374000000000000000000000000000000000000000000000000000000000000604082015250565b6000620017d26042836200155e565b9150620017df826200174e565b606082019050919050565b600060208201905081810360008301526200180581620017c3565b9050919050565b600060608201905081810360008301526200182881866200156f565b905062001839602083018562001036565b62001848604083018462001311565b949350505050565b6200185b816200145b565b81146200186757600080fd5b50565b6000815190506200187b8162001850565b92915050565b6000602082840312156200189a576200189962000e3b565b5b6000620018aa848285016200186a565b91505092915050565b7f45737461626c6973686d656e7449442068617320616e2061647265737320616c60008201527f726561647920726567697374657265642e000000000000000000000000000000602082015250565b6000620019116031836200155e565b91506200191e82620018b3565b604082019050919050565b60006020820190508181036000830152620019448162001902565b9050919050565b7f4164726573732068617320616e642045737461626c6973686d656e742049442060008201527f616c6c726561647920726567697374657265642e000000000000000000000000602082015250565b6000620019a96034836200155e565b9150620019b6826200194b565b604082019050919050565b60006020820190508181036000830152620019dc816200199a565b9050919050565b60006040820190508181036000830152620019ff81856200156f565b905062001a10602083018462001311565b9392505050565b60008190508160005260206000209050919050565b60006020601f8301049050919050565b600082821b905092915050565b60006008830262001a7b7fffffffffffffffffffffffffffffffffffffffffffffffffffffffffffffffff8262001a3c565b62001a87868362001a3c565b95508019841693508086168417925050509392505050565b6000819050919050565b6000819050919050565b600062001ad462001ace62001ac88462001a9f565b62001aa9565b62001a9f565b9050919050565b6000819050919050565b62001af08362001ab3565b62001b0862001aff8262001adb565b84845462001a49565b825550505050565b600090565b62001b1f62001b10565b62001b2c81848462001ae5565b505050565b5b8181101562001b545762001b4860008262001b15565b60018101905062001b32565b5050565b601f82111562001ba35762001b6d8162001a17565b62001b788462001a2c565b8101602085101562001b88578190505b62001ba062001b978562001a2c565b83018262001b31565b50505b505050565b600082821c905092915050565b600062001bc86000198460080262001ba8565b1980831691505092915050565b600062001be3838362001bb5565b9150826002028217905092915050565b62001bfe82620011b6565b67ffffffffffffffff81111562001c1a5762001c1962000e60565b5b62001c26825462001719565b62001c3382828562001b58565b600060209050601f83116001811462001c6b576000841562001c56578287015190505b62001c62858262001bd5565b86555062001cd2565b601f19841662001c7b8662001a17565b60005b8281101562001ca55784890151825560018201915060208501945060208101905062001c7e565b8683101562001cc5578489015162001cc1601f89168262001bb5565b8355505b6001600288020188555050505b505050505050565b7f4f776e61626c653a206e6577206f776e657220697320746865207a65726f206160008201527f6464726573730000000000000000000000000000000000000000000000000000602082015250565b600062001d386026836200155e565b915062001d458262001cda565b604082019050919050565b6000602082019050818103600083015262001d6b8162001d29565b9050919050565b7f4f776e61626c653a2063616c6c6572206973206e6f7420746865206f776e6572600082015250565b600062001daa6020836200155e565b915062001db78262001d72565b602082019050919050565b6000602082019050818103600083015262001ddd8162001d9b565b905091905056fe60806040523480156200001157600080fd5b506040516200171a3803806200171a8339818101604052810190620000379190620004a0565b620000576200004b6200008260201b60201c565b6200008a60201b60201c565b816001908162000068919062000751565b506200007a816200014e60201b60201c565b505062000953565b600033905090565b60008060009054906101000a900473ffffffffffffffffffffffffffffffffffffffff169050816000806101000a81548173ffffffffffffffffffffffffffffffffffffffff021916908373ffffffffffffffffffffffffffffffffffffffff1602179055508173ffffffffffffffffffffffffffffffffffffffff168173ffffffffffffffffffffffffffffffffffffffff167f8be0079c531659141344cd1fd0a4f28419497f9722a3daafe3b4186f6b6457e060405160405180910390a35050565b6200015e620001e460201b60201c565b600073ffffffffffffffffffffffffffffffffffffffff168173ffffffffffffffffffffffffffffffffffffffff1603620001d0576040517f08c379a0000000000000000000000000000000000000000000000000000000008152600401620001c790620008bf565b60405180910390fd5b620001e1816200008a60201b60201c565b50565b620001f46200008260201b60201c565b73ffffffffffffffffffffffffffffffffffffffff166200021a6200027560201b60201c565b73ffffffffffffffffffffffffffffffffffffffff161462000273576040517f08c379a00000000000000000000000000000000000000000000000000000000081526004016200026a9062000931565b60405180910390fd5b565b60008060009054906101000a900473ffffffffffffffffffffffffffffffffffffffff16905090565b6000604051905090565b600080fd5b600080fd5b600080fd5b600080fd5b6000601f19601f8301169050919050565b7f4e487b7100000000000000000000000000000000000000000000000000000000600052604160045260246000fd5b6200030782620002bc565b810181811067ffffffffffffffff82111715620003295762000328620002cd565b5b80604052505050565b60006200033e6200029e565b90506200034c8282620002fc565b919050565b600067ffffffffffffffff8211156200036f576200036e620002cd565b5b6200037a82620002bc565b9050602081019050919050565b60005b83811015620003a75780820151818401526020810190506200038a565b83811115620003b7576000848401525b50505050565b6000620003d4620003ce8462000351565b62000332565b905082815260208101848484011115620003f357620003f2620002b7565b5b6200040084828562000387565b509392505050565b600082601f83011262000420576200041f620002b2565b5b815162000432848260208601620003bd565b91505092915050565b600073ffffffffffffffffffffffffffffffffffffffff82169050919050565b600062000468826200043b565b9050919050565b6200047a816200045b565b81146200048657600080fd5b50565b6000815190506200049a816200046f565b92915050565b60008060408385031215620004ba57620004b9620002a8565b5b600083015167ffffffffffffffff811115620004db57620004da620002ad565b5b620004e98582860162000408565b9250506020620004fc8582860162000489565b9150509250929050565b600081519050919050565b7f4e487b7100000000000000000000000000000000000000000000000000000000600052602260045260246000fd5b600060028204905060018216806200055957607f821691505b6020821081036200056f576200056e62000511565b5b50919050565b60008190508160005260206000209050919050565b60006020601f8301049050919050565b600082821b905092915050565b600060088302620005d97fffffffffffffffffffffffffffffffffffffffffffffffffffffffffffffffff826200059a565b620005e586836200059a565b95508019841693508086168417925050509392505050565b6000819050919050565b6000819050919050565b6000620006326200062c6200062684620005fd565b62000607565b620005fd565b9050919050565b6000819050919050565b6200064e8362000611565b620006666200065d8262000639565b848454620005a7565b825550505050565b600090565b6200067d6200066e565b6200068a81848462000643565b505050565b5b81811015620006b257620006a660008262000673565b60018101905062000690565b5050565b601f8211156200070157620006cb8162000575565b620006d6846200058a565b81016020851015620006e6578190505b620006fe620006f5856200058a565b8301826200068f565b50505b505050565b600082821c905092915050565b6000620007266000198460080262000706565b1980831691505092915050565b600062000741838362000713565b9150826002028217905092915050565b6200075c8262000506565b67ffffffffffffffff811115620007785762000777620002cd565b5b62000784825462000540565b62000791828285620006b6565b600060209050601f831160018114620007c95760008415620007b4578287015190505b620007c0858262000733565b86555062000830565b601f198416620007d98662000575565b60005b828110156200080357848901518255600182019150602085019450602081019050620007dc565b868310156200082357848901516200081f601f89168262000713565b8355505b6001600288020188555050505b505050505050565b600082825260208201905092915050565b7f4f776e61626c653a206e6577206f776e657220697320746865207a65726f206160008201527f6464726573730000000000000000000000000000000000000000000000000000602082015250565b6000620008a760268362000838565b9150620008b48262000849565b604082019050919050565b60006020820190508181036000830152620008da8162000898565b9050919050565b7f4f776e61626c653a2063616c6c6572206973206e6f7420746865206f776e6572600082015250565b60006200091960208362000838565b91506200092682620008e1565b602082019050919050565b600060208201905081810360008301526200094c816200090a565b9050919050565b610db780620009636000396000f3fe608060405234801561001057600080fd5b506004361061007d5760003560e01c8063b177e8b51161005b578063b177e8b5146100da578063c97d1a7a1461010a578063da4c931a14610128578063f2fde38b146101585761007d565b806368e9b6dc14610082578063715018a6146100b25780638da5cb5b146100bc575b600080fd5b61009c60048036038101906100979190610762565b610174565b6040516100a991906107c4565b60405180910390f35b6100ba6101a2565b005b6100c46101b6565b6040516100d19190610820565b60405180910390f35b6100f460048036038101906100ef9190610893565b6101df565b604051610101919061091d565b60405180910390f35b610112610322565b60405161011f91906109c0565b60405180910390f35b610142600480360381019061013d9190610762565b6103b0565b60405161014f91906107c4565b60405180910390f35b610172600480360381019061016d91906109e2565b61043b565b005b6002818051602081018201805184825260208301602085012081835280955050505050506000915090505481565b6101aa6104be565b6101b4600061053c565b565b60008060009054906101000a900473ffffffffffffffffffffffffffffffffffffffff16905090565b60008173ffffffffffffffffffffffffffffffffffffffff166102006101b6565b73ffffffffffffffffffffffffffffffffffffffff1614610256576040517f08c379a000000000000000000000000000000000000000000000000000000000815260040161024d90610a81565b60405180910390fd5b6000801b60028560405161026a9190610add565b908152602001604051809103902054146102b9576040517f08c379a00000000000000000000000000000000000000000000000000000000081526004016102b090610b40565b60405180910390fd5b826002856040516102ca9190610add565b9081526020016040518091039020819055507fbce1be642146948cd049502ee2e723fc29885f588ae7fb7825415a295678cb9142858560405161030f93929190610b79565b60405180910390a1600190509392505050565b6001805461032f90610be6565b80601f016020809104026020016040519081016040528092919081815260200182805461035b90610be6565b80156103a85780601f1061037d576101008083540402835291602001916103a8565b820191906000526020600020905b81548152906001019060200180831161038b57829003601f168201915b505050505081565b60008060001b6002836040516103c69190610add565b90815260200160405180910390205403610415576040517f08c379a000000000000000000000000000000000000000000000000000000000815260040161040c90610c63565b60405180910390fd5b6002826040516104259190610add565b9081526020016040518091039020549050919050565b6104436104be565b600073ffffffffffffffffffffffffffffffffffffffff168173ffffffffffffffffffffffffffffffffffffffff16036104b2576040517f08c379a00000000000000000000000000000000000000000000000000000000081526004016104a990610cf5565b60405180910390fd5b6104bb8161053c565b50565b6104c6610600565b73ffffffffffffffffffffffffffffffffffffffff166104e46101b6565b73ffffffffffffffffffffffffffffffffffffffff161461053a576040517f08c379a000000000000000000000000000000000000000000000000000000000815260040161053190610d61565b60405180910390fd5b565b60008060009054906101000a900473ffffffffffffffffffffffffffffffffffffffff169050816000806101000a81548173ffffffffffffffffffffffffffffffffffffffff021916908373ffffffffffffffffffffffffffffffffffffffff1602179055508173ffffffffffffffffffffffffffffffffffffffff168173ffffffffffffffffffffffffffffffffffffffff167f8be0079c531659141344cd1fd0a4f28419497f9722a3daafe3b4186f6b6457e060405160405180910390a35050565b600033905090565b6000604051905090565b600080fd5b600080fd5b600080fd5b600080fd5b6000601f19601f8301169050919050565b7f4e487b7100000000000000000000000000000000000000000000000000000000600052604160045260246000fd5b61066f82610626565b810181811067ffffffffffffffff8211171561068e5761068d610637565b5b80604052505050565b60006106a1610608565b90506106ad8282610666565b919050565b600067ffffffffffffffff8211156106cd576106cc610637565b5b6106d682610626565b9050602081019050919050565b82818337600083830152505050565b6000610705610700846106b2565b610697565b90508281526020810184848401111561072157610720610621565b5b61072c8482856106e3565b509392505050565b600082601f8301126107495761074861061c565b5b81356107598482602086016106f2565b91505092915050565b60006020828403121561077857610777610612565b5b600082013567ffffffffffffffff81111561079657610795610617565b5b6107a284828501610734565b91505092915050565b6000819050919050565b6107be816107ab565b82525050565b60006020820190506107d960008301846107b5565b92915050565b600073ffffffffffffffffffffffffffffffffffffffff82169050919050565b600061080a826107df565b9050919050565b61081a816107ff565b82525050565b60006020820190506108356000830184610811565b92915050565b610844816107ab565b811461084f57600080fd5b50565b6000813590506108618161083b565b92915050565b610870816107ff565b811461087b57600080fd5b50565b60008135905061088d81610867565b92915050565b6000806000606084860312156108ac576108ab610612565b5b600084013567ffffffffffffffff8111156108ca576108c9610617565b5b6108d686828701610734565b93505060206108e786828701610852565b92505060406108f88682870161087e565b9150509250925092565b60008115159050919050565b61091781610902565b82525050565b6000602082019050610932600083018461090e565b92915050565b600081519050919050565b600082825260208201905092915050565b60005b83811015610972578082015181840152602081019050610957565b83811115610981576000848401525b50505050565b600061099282610938565b61099c8185610943565b93506109ac818560208601610954565b6109b581610626565b840191505092915050565b600060208201905081810360008301526109da8184610987565b905092915050565b6000602082840312156109f8576109f7610612565b5b6000610a068482850161087e565b91505092915050565b7f4f6e6c79206f776e65722063616e207265676973746572206120446f63756d6560008201527f6e74000000000000000000000000000000000000000000000000000000000000602082015250565b6000610a6b602283610943565b9150610a7682610a0f565b604082019050919050565b60006020820190508181036000830152610a9a81610a5e565b9050919050565b600081905092915050565b6000610ab782610938565b610ac18185610aa1565b9350610ad1818560208601610954565b80840191505092915050565b6000610ae98284610aac565b915081905092915050565b7f446f63756d656e7420616c6c7265616479207265676973746572656400000000600082015250565b6000610b2a601c83610943565b9150610b3582610af4565b602082019050919050565b60006020820190508181036000830152610b5981610b1d565b9050919050565b6000819050919050565b610b7381610b60565b82525050565b6000606082019050610b8e6000830186610b6a565b8181036020830152610ba08185610987565b9050610baf60408301846107b5565b949350505050565b7f4e487b7100000000000000000000000000000000000000000000000000000000600052602260045260246000fd5b60006002820490506001821680610bfe57607f821691505b602082108103610c1157610c10610bb7565b5b50919050565b7f446f63756d656e7420646f65736e742065786973740000000000000000000000600082015250565b6000610c4d601583610943565b9150610c5882610c17565b602082019050919050565b60006020820190508181036000830152610c7c81610c40565b9050919050565b7f4f776e61626c653a206e6577206f776e657220697320746865207a65726f206160008201527f6464726573730000000000000000000000000000000000000000000000000000602082015250565b6000610cdf602683610943565b9150610cea82610c83565b604082019050919050565b60006020820190508181036000830152610d0e81610cd2565b9050919050565b7f4f776e61626c653a2063616c6c6572206973206e6f7420746865206f776e6572600082015250565b6000610d4b602083610943565b9150610d5682610d15565b602082019050919050565b60006020820190508181036000830152610d7a81610d3e565b905091905056fea26469706673582212201088aa2948406ddef06f99d17c679f11d25e9eccac7ce739a3f77e0c9f8430a964736f6c634300080f0033a2646970667358221220e04d633bbdd60717d149baffb286a68a26439a72c5a9931674265a76a15be29764736f6c634300080f0033",
  "immutableReferences": {},
  "source": "// SPDX-License-Identifier: GPL-3.0\r\npragma solidity ^0.8.4;\r\n\r\n\r\nimport \"@openzeppelin/contracts/access/Ownable.sol\";\r\n\r\ncontract EstablishmentAudit is Ownable{\r\n\r\n   event RecordAudited( uint256 timestamp , string documentId , bytes32 documentHash);\r\n   \r\n  /**\r\n    * @dev Establishment Identifier, name or CIF or Whatever\r\n    *  \r\n    */\r\n  string public EstablishmentId;\r\n\r\n  // Mapping from Document Id as string representation to Hash of Document content\r\n  mapping(string=>bytes32) public AuditLogs;\r\n   \r\n \r\n  constructor (string memory _establishmentId, address owner) {\r\n      EstablishmentId = _establishmentId;\r\n      transferOwnership(owner);\r\n  }\r\n  \r\n  /**\r\n    * @dev Register a document into the Audit\r\n    *  \r\n    */\r\n  function registerDocument(string memory documentId , bytes32 documentHash , address contractOwner) public returns(bool) {\r\n    require(  owner() == contractOwner ,  \"Only owner can register a Document\");\r\n\t require(  AuditLogs[documentId] == 0 ,  \"Document allready registered\");\r\n    AuditLogs[documentId] = documentHash;\r\n    emit RecordAudited(block.timestamp, documentId ,documentHash );\r\n    return true;\r\n  }\r\n\t\r\n\t\r\n  /**\r\n    * @dev Retrieve the hash of a document content for a specific Document Id\r\n    *  \r\n    */\r\n\tfunction getDocumentContentHash(string memory documentId ) public view returns(bytes32) {\r\n      require( AuditLogs[documentId] != 0,  \"Document doesnt exist\");\r\n\t\t  return AuditLogs[documentId];\r\n    }\r\n\t\r\n}\r\n\r\n\r\ncontract AuditManagement is Ownable{\r\n\r\n   \r\n   address[] private establishmentAudit;\r\n   string[]  private establishmentIds; \r\n   mapping(string=>address) private addressEstablishments;\r\n   mapping(address=>string) private addressIDEstablishments;\r\n\r\n\r\n   /**\r\n    * @dev Helper function to compare\r\n    */\r\n   function compareStrings(string memory a, string memory b) public pure returns (bool) {\r\n        return keccak256(abi.encodePacked(a)) == keccak256(abi.encodePacked(b));\r\n    }\r\n\r\n   /**\r\n    * @dev Add an establishment to Audit\r\n    */\r\n\r\n   function AddEstablishment(string memory establishmentID ,address owner ) public onlyOwner returns (bool success) {\r\n\t\trequire(addressEstablishments[establishmentID] == address(0), \"EstablishmentID has an adress already registered.\");\r\n\t\trequire( compareStrings(addressIDEstablishments[owner],\"\") == true , \"Adress has and Establishment ID allready registered.\");\r\n\t\taddress newEstablishment = address(new EstablishmentAudit(establishmentID,msg.sender));            \r\n\t\testablishmentAudit.push(newEstablishment);\r\n      establishmentIds.push(establishmentID);\r\n\t\taddressEstablishments[establishmentID] = newEstablishment;\r\n      addressIDEstablishments[owner] = establishmentID;\r\n\t\treturn true;\r\n    }\r\n   \r\n\r\n   /**\r\n    * @dev Get establishment Id from a address\r\n    */\r\n   function getStablishmentID(address owner ) public view returns (string memory) {\r\n        return addressIDEstablishments[owner];\r\n   }\r\n\r\n    /**\r\n    * @dev Get subcontract Adress from establishmentID \r\n    */\r\n   function getContractAddressFromEstablishmentId(string memory establishmentID ) public view returns (address) {\r\n        return addressEstablishments[establishmentID];\r\n   }\r\n\r\n   /**\r\n    * @dev Add  an Audit Record \r\n    */\r\n  function registerAudit( string memory establishmentID , string memory documentId , bytes32  documentHash ) public returns(bool) {\r\n\t require(addressEstablishments[establishmentID] != address(0), \"Could not register Audit Record because Establishment doesnt exist\");\r\n    EstablishmentAudit(addressEstablishments[establishmentID]).registerDocument(documentId,documentHash,msg.sender);\r\n    return true;\r\n  }\r\n\r\n  \r\n   /**\r\n    * @dev Audit Record \r\n    */\r\n  function auditDocument( string memory establishmentID , string memory documentId ) public view  returns(bytes32) {\r\n\t require(addressEstablishments[establishmentID] != address(0), \"Establishment doesnt exist.\");\r\n    return EstablishmentAudit(addressEstablishments[establishmentID]).getDocumentContentHash(documentId);\r\n   }\r\n\r\n   /**\r\n    * @dev List the Deployed Contracts\r\n    */\r\n   function getDeployedChildContracts() public view returns (address[] memory) {\r\n      return establishmentAudit;\r\n   }\r\n\r\n  /**\r\n    * @dev List all Establishments\r\n    */\r\n   function listEstablishments() public view returns (string[] memory) {\r\n        return establishmentIds;\r\n   }\r\n}\r\n\r\n\r\n",
  "sourcePath": "C:\\Users\\herty\\Documents\\BlockChain\\Postgrado\\Proyecto Ethereum\\BSMWeb3Proyect\\contracts\\AuditManagement.sol",
  "compiler": {
    "name": "solc",
    "version": "0.8.15+commit.e14f2714.Emscripten.clang"
  },
  "schemaVersion": "3.4.8",
  "updatedAt": "2022-08-07T18:30:26.069Z",
  "networkType": "ethereum",
  "devdoc": {
    "kind": "dev",
    "methods": {
      "AddEstablishment(string,address)": {
        "details": "Add an establishment to Audit"
      },
      "auditDocument(string,string)": {
        "details": "Audit Record "
      },
      "compareStrings(string,string)": {
        "details": "Helper function to compare"
      },
      "getContractAddressFromEstablishmentId(string)": {
        "details": "Get subcontract Adress from establishmentID "
      },
      "getDeployedChildContracts()": {
        "details": "List the Deployed Contracts"
      },
      "getStablishmentID(address)": {
        "details": "Get establishment Id from a address"
      },
      "listEstablishments()": {
        "details": "List all Establishments"
      },
      "owner()": {
        "details": "Returns the address of the current owner."
      },
      "registerAudit(string,string,bytes32)": {
        "details": "Add  an Audit Record "
      },
      "renounceOwnership()": {
        "details": "Leaves the contract without owner. It will not be possible to call `onlyOwner` functions anymore. Can only be called by the current owner. NOTE: Renouncing ownership will leave the contract without an owner, thereby removing any functionality that is only available to the owner."
      },
      "transferOwnership(address)": {
        "details": "Transfers ownership of the contract to a new account (`newOwner`). Can only be called by the current owner."
      }
    },
    "version": 1
  },
  "userdoc": {
    "kind": "user",
    "methods": {},
    "version": 1
  }
}