{
  "contractName": "AuditManagement",
  "abi": [
    {
      "anonymous": false,
      "inputs": [
        {
          "indexed": true,
          "internalType": "address",
          "name": "previousOwner",
          "type": "address"
        },
        {
          "indexed": true,
          "internalType": "address",
          "name": "newOwner",
          "type": "address"
        }
      ],
      "name": "OwnershipTransferred",
      "type": "event"
    },
    {
      "inputs": [],
      "name": "owner",
      "outputs": [
        {
          "internalType": "address",
          "name": "",
          "type": "address"
        }
      ],
      "stateMutability": "view",
      "type": "function",
      "constant": true
    },
    {
      "inputs": [],
      "name": "renounceOwnership",
      "outputs": [],
      "stateMutability": "nonpayable",
      "type": "function"
    },
    {
      "inputs": [
        {
          "internalType": "address",
          "name": "newOwner",
          "type": "address"
        }
      ],
      "name": "transferOwnership",
      "outputs": [],
      "stateMutability": "nonpayable",
      "type": "function"
    },
    {
      "inputs": [
        {
          "internalType": "string",
          "name": "a",
          "type": "string"
        },
        {
          "internalType": "string",
          "name": "b",
          "type": "string"
        }
      ],
      "name": "compareStrings",
      "outputs": [
        {
          "internalType": "bool",
          "name": "",
          "type": "bool"
        }
      ],
      "stateMutability": "pure",
      "type": "function",
      "constant": true
    },
    {
      "inputs": [
        {
          "internalType": "string",
          "name": "establishmentID",
          "type": "string"
        },
        {
          "internalType": "address",
          "name": "owner",
          "type": "address"
        }
      ],
      "name": "AddEstablishment",
      "outputs": [
        {
          "internalType": "bool",
          "name": "success",
          "type": "bool"
        }
      ],
      "stateMutability": "nonpayable",
      "type": "function"
    },
    {
      "inputs": [
        {
          "internalType": "address",
          "name": "owner",
          "type": "address"
        }
      ],
      "name": "getStablishmentID",
      "outputs": [
        {
          "internalType": "string",
          "name": "",
          "type": "string"
        }
      ],
      "stateMutability": "view",
      "type": "function",
      "constant": true
    },
    {
      "inputs": [
        {
          "internalType": "string",
          "name": "establishmentID",
          "type": "string"
        },
        {
          "internalType": "string",
          "name": "documentId",
          "type": "string"
        },
        {
          "internalType": "bytes32",
          "name": "documentHash",
          "type": "bytes32"
        }
      ],
      "name": "registerAudit",
      "outputs": [
        {
          "internalType": "bool",
          "name": "",
          "type": "bool"
        }
      ],
      "stateMutability": "nonpayable",
      "type": "function"
    },
    {
      "inputs": [
        {
          "internalType": "string",
          "name": "establishmentID",
          "type": "string"
        },
        {
          "internalType": "string",
          "name": "documentId",
          "type": "string"
        }
      ],
      "name": "auditDocument",
      "outputs": [
        {
          "internalType": "bytes32",
          "name": "",
          "type": "bytes32"
        }
      ],
      "stateMutability": "view",
      "type": "function",
      "constant": true
    },
    {
      "inputs": [],
      "name": "getDeployedChildContracts",
      "outputs": [
        {
          "internalType": "address[]",
          "name": "",
          "type": "address[]"
        }
      ],
      "stateMutability": "view",
      "type": "function",
      "constant": true
    },
    {
      "inputs": [],
      "name": "listEstablishments",
      "outputs": [
        {
          "internalType": "string[]",
          "name": "",
          "type": "string[]"
        }
      ],
      "stateMutability": "view",
      "type": "function",
      "constant": true
    }
  ],
  "bytecode": "0x608060405234801561001057600080fd5b5061002d61002261003260201b60201c565b61003a60201b60201c565b6100fe565b600033905090565b60008060009054906101000a900473ffffffffffffffffffffffffffffffffffffffff169050816000806101000a81548173ffffffffffffffffffffffffffffffffffffffff021916908373ffffffffffffffffffffffffffffffffffffffff1602179055508173ffffffffffffffffffffffffffffffffffffffff168173ffffffffffffffffffffffffffffffffffffffff167f8be0079c531659141344cd1fd0a4f28419497f9722a3daafe3b4186f6b6457e060405160405180910390a35050565b613457806200010e6000396000f3fe60806040523480156200001157600080fd5b5060043610620000ac5760003560e01c8063aa04abd9116200006f578063aa04abd91462000159578063bed34bba146200018f578063d13b595f14620001c5578063dfd469b114620001fb578063f2fde38b146200023157620000ac565b8063361fe48914620000b1578063527596bf14620000e7578063715018a614620001095780638287545f14620001155780638da5cb5b1462000137575b600080fd5b620000cf6004803603810190620000c9919062000f1b565b62000251565b604051620000de919062000fbb565b60405180910390f35b620000f1620003cb565b604051620001009190620010da565b60405180910390f35b620001136200045b565b005b6200011f62000473565b6040516200012e919062001261565b60405180910390f35b6200014162000556565b60405162000150919062001296565b60405180910390f35b620001776004803603810190620001719190620012e4565b6200057f565b6040516200018691906200139b565b60405180910390f35b620001ad6004803603810190620001a7919062000f1b565b62000703565b604051620001bc91906200139b565b60405180910390f35b620001e36004803603810190620001dd9190620013e9565b62000760565b604051620001f291906200139b565b60405180910390f35b6200021960048036038101906200021391906200144f565b62000ae3565b604051620002289190620014d3565b60405180910390f35b6200024f60048036038101906200024991906200144f565b62000bbc565b005b60008073ffffffffffffffffffffffffffffffffffffffff166003846040516200027c919062001539565b908152602001604051809103902060009054906101000a900473ffffffffffffffffffffffffffffffffffffffff1673ffffffffffffffffffffffffffffffffffffffff160362000304576040517f08c379a0000000000000000000000000000000000000000000000000000000008152600401620002fb90620015a2565b60405180910390fd5b60038360405162000316919062001539565b908152602001604051809103902060009054906101000a900473ffffffffffffffffffffffffffffffffffffffff1673ffffffffffffffffffffffffffffffffffffffff1663da4c931a836040518263ffffffff1660e01b81526004016200037f9190620014d3565b602060405180830381865afa1580156200039d573d6000803e3d6000fd5b505050506040513d601f19601f82011682018060405250810190620003c39190620015db565b905092915050565b606060018054806020026020016040519081016040528092919081815260200182805480156200045157602002820191906000526020600020905b8160009054906101000a900473ffffffffffffffffffffffffffffffffffffffff1673ffffffffffffffffffffffffffffffffffffffff168152602001906001019080831162000406575b5050505050905090565b6200046562000c46565b62000471600062000ccb565b565b60606002805480602002602001604051908101604052809291908181526020016000905b828210156200054d578382906000526020600020018054620004b9906200163c565b80601f0160208091040260200160405190810160405280929190818152602001828054620004e7906200163c565b8015620005385780601f106200050c5761010080835404028352916020019162000538565b820191906000526020600020905b8154815290600101906020018083116200051a57829003601f168201915b50505050508152602001906001019062000497565b50505050905090565b60008060009054906101000a900473ffffffffffffffffffffffffffffffffffffffff16905090565b60008073ffffffffffffffffffffffffffffffffffffffff16600385604051620005aa919062001539565b908152602001604051809103902060009054906101000a900473ffffffffffffffffffffffffffffffffffffffff1673ffffffffffffffffffffffffffffffffffffffff160362000632576040517f08c379a000000000000000000000000000000000000000000000000000000000815260040162000629906200170d565b60405180910390fd5b60038460405162000644919062001539565b908152602001604051809103902060009054906101000a900473ffffffffffffffffffffffffffffffffffffffff1673ffffffffffffffffffffffffffffffffffffffff1663b177e8b58484336040518463ffffffff1660e01b8152600401620006b1939291906200172f565b6020604051808303816000875af1158015620006d1573d6000803e3d6000fd5b505050506040513d601f19601f82011682018060405250810190620006f79190620017a4565b50600190509392505050565b60008160405160200162000718919062001539565b604051602081830303815290604052805190602001208360405160200162000741919062001539565b6040516020818303038152906040528051906020012014905092915050565b60006200076c62000c46565b600073ffffffffffffffffffffffffffffffffffffffff1660038460405162000796919062001539565b908152602001604051809103902060009054906101000a900473ffffffffffffffffffffffffffffffffffffffff1673ffffffffffffffffffffffffffffffffffffffff16146200081e576040517f08c379a000000000000000000000000000000000000000000000000000000000815260040162000815906200184c565b60405180910390fd5b600115156200090c600460008573ffffffffffffffffffffffffffffffffffffffff1673ffffffffffffffffffffffffffffffffffffffff168152602001908152602001600020805462000872906200163c565b80601f0160208091040260200160405190810160405280929190818152602001828054620008a0906200163c565b8015620008f15780601f10620008c557610100808354040283529160200191620008f1565b820191906000526020600020905b815481529060010190602001808311620008d357829003601f168201915b50505050506040518060200160405280600081525062000703565b15151462000951576040517f08c379a00000000000000000000000000000000000000000000000000000000081526004016200094890620018e4565b60405180910390fd5b60008333604051620009639062000d97565b6200097092919062001906565b604051809103906000f0801580156200098d573d6000803e3d6000fd5b5090506001819080600181540180825580915050600190039060005260206000200160009091909190916101000a81548173ffffffffffffffffffffffffffffffffffffffff021916908373ffffffffffffffffffffffffffffffffffffffff16021790555060028490806001815401808255809150506001900390600052602060002001600090919091909150908162000a29919062001b16565b508060038560405162000a3d919062001539565b908152602001604051809103902060006101000a81548173ffffffffffffffffffffffffffffffffffffffff021916908373ffffffffffffffffffffffffffffffffffffffff16021790555083600460008573ffffffffffffffffffffffffffffffffffffffff1673ffffffffffffffffffffffffffffffffffffffff168152602001908152602001600020908162000ad7919062001b16565b50600191505092915050565b6060600460008373ffffffffffffffffffffffffffffffffffffffff1673ffffffffffffffffffffffffffffffffffffffff168152602001908152602001600020805462000b31906200163c565b80601f016020809104026020016040519081016040528092919081815260200182805462000b5f906200163c565b801562000bb05780601f1062000b845761010080835404028352916020019162000bb0565b820191906000526020600020905b81548152906001019060200180831162000b9257829003601f168201915b50505050509050919050565b62000bc662000c46565b600073ffffffffffffffffffffffffffffffffffffffff168173ffffffffffffffffffffffffffffffffffffffff160362000c38576040517f08c379a000000000000000000000000000000000000000000000000000000000815260040162000c2f9062001c73565b60405180910390fd5b62000c438162000ccb565b50565b62000c5062000d8f565b73ffffffffffffffffffffffffffffffffffffffff1662000c7062000556565b73ffffffffffffffffffffffffffffffffffffffff161462000cc9576040517f08c379a000000000000000000000000000000000000000000000000000000000815260040162000cc09062001ce5565b60405180910390fd5b565b60008060009054906101000a900473ffffffffffffffffffffffffffffffffffffffff169050816000806101000a81548173ffffffffffffffffffffffffffffffffffffffff021916908373ffffffffffffffffffffffffffffffffffffffff1602179055508173ffffffffffffffffffffffffffffffffffffffff168173ffffffffffffffffffffffffffffffffffffffff167f8be0079c531659141344cd1fd0a4f28419497f9722a3daafe3b4186f6b6457e060405160405180910390a35050565b600033905090565b61171a8062001d0883390190565b6000604051905090565b600080fd5b600080fd5b600080fd5b600080fd5b6000601f19601f8301169050919050565b7f4e487b7100000000000000000000000000000000000000000000000000000000600052604160045260246000fd5b62000e0e8262000dc3565b810181811067ffffffffffffffff8211171562000e305762000e2f62000dd4565b5b80604052505050565b600062000e4562000da5565b905062000e53828262000e03565b919050565b600067ffffffffffffffff82111562000e765762000e7562000dd4565b5b62000e818262000dc3565b9050602081019050919050565b82818337600083830152505050565b600062000eb462000eae8462000e58565b62000e39565b90508281526020810184848401111562000ed35762000ed262000dbe565b5b62000ee084828562000e8e565b509392505050565b600082601f83011262000f005762000eff62000db9565b5b813562000f1284826020860162000e9d565b91505092915050565b6000806040838503121562000f355762000f3462000daf565b5b600083013567ffffffffffffffff81111562000f565762000f5562000db4565b5b62000f648582860162000ee8565b925050602083013567ffffffffffffffff81111562000f885762000f8762000db4565b5b62000f968582860162000ee8565b9150509250929050565b6000819050919050565b62000fb58162000fa0565b82525050565b600060208201905062000fd2600083018462000faa565b92915050565b600081519050919050565b600082825260208201905092915050565b6000819050602082019050919050565b600073ffffffffffffffffffffffffffffffffffffffff82169050919050565b6000620010318262001004565b9050919050565b620010438162001024565b82525050565b600062001057838362001038565b60208301905092915050565b6000602082019050919050565b60006200107d8262000fd8565b62001089818562000fe3565b9350620010968362000ff4565b8060005b83811015620010cd578151620010b1888262001049565b9750620010be8362001063565b9250506001810190506200109a565b5085935050505092915050565b60006020820190508181036000830152620010f6818462001070565b905092915050565b600081519050919050565b600082825260208201905092915050565b6000819050602082019050919050565b600081519050919050565b600082825260208201905092915050565b60005b838110156200116657808201518184015260208101905062001149565b8381111562001176576000848401525b50505050565b600062001189826200112a565b62001195818562001135565b9350620011a781856020860162001146565b620011b28162000dc3565b840191505092915050565b6000620011cb83836200117c565b905092915050565b6000602082019050919050565b6000620011ed82620010fe565b620011f9818562001109565b9350836020820285016200120d856200111a565b8060005b858110156200124f57848403895281516200122d8582620011bd565b94506200123a83620011d3565b925060208a0199505060018101905062001211565b50829750879550505050505092915050565b600060208201905081810360008301526200127d8184620011e0565b905092915050565b620012908162001024565b82525050565b6000602082019050620012ad600083018462001285565b92915050565b620012be8162000fa0565b8114620012ca57600080fd5b50565b600081359050620012de81620012b3565b92915050565b6000806000606084860312156200130057620012ff62000daf565b5b600084013567ffffffffffffffff81111562001321576200132062000db4565b5b6200132f8682870162000ee8565b935050602084013567ffffffffffffffff81111562001353576200135262000db4565b5b620013618682870162000ee8565b92505060406200137486828701620012cd565b9150509250925092565b60008115159050919050565b62001395816200137e565b82525050565b6000602082019050620013b260008301846200138a565b92915050565b620013c38162001024565b8114620013cf57600080fd5b50565b600081359050620013e381620013b8565b92915050565b6000806040838503121562001403576200140262000daf565b5b600083013567ffffffffffffffff81111562001424576200142362000db4565b5b620014328582860162000ee8565b92505060206200144585828601620013d2565b9150509250929050565b60006020828403121562001468576200146762000daf565b5b60006200147884828501620013d2565b91505092915050565b600082825260208201905092915050565b60006200149f826200112a565b620014ab818562001481565b9350620014bd81856020860162001146565b620014c88162000dc3565b840191505092915050565b60006020820190508181036000830152620014ef818462001492565b905092915050565b600081905092915050565b60006200150f826200112a565b6200151b8185620014f7565b93506200152d81856020860162001146565b80840191505092915050565b600062001547828462001502565b915081905092915050565b7f45737461626c6973686d656e7420646f65736e742065786973742e0000000000600082015250565b60006200158a601b8362001481565b9150620015978262001552565b602082019050919050565b60006020820190508181036000830152620015bd816200157b565b9050919050565b600081519050620015d581620012b3565b92915050565b600060208284031215620015f457620015f362000daf565b5b60006200160484828501620015c4565b91505092915050565b7f4e487b7100000000000000000000000000000000000000000000000000000000600052602260045260246000fd5b600060028204905060018216806200165557607f821691505b6020821081036200166b576200166a6200160d565b5b50919050565b7f436f756c64206e6f74207265676973746572204175646974205265636f72642060008201527f626563617573652045737461626c6973686d656e7420646f65736e742065786960208201527f7374000000000000000000000000000000000000000000000000000000000000604082015250565b6000620016f560428362001481565b9150620017028262001671565b606082019050919050565b600060208201905081810360008301526200172881620016e6565b9050919050565b600060608201905081810360008301526200174b818662001492565b90506200175c602083018562000faa565b6200176b604083018462001285565b949350505050565b6200177e816200137e565b81146200178a57600080fd5b50565b6000815190506200179e8162001773565b92915050565b600060208284031215620017bd57620017bc62000daf565b5b6000620017cd848285016200178d565b91505092915050565b7f45737461626c6973686d656e7449442068617320616e2061647265737320616c60008201527f726561647920726567697374657265642e000000000000000000000000000000602082015250565b60006200183460318362001481565b91506200184182620017d6565b604082019050919050565b60006020820190508181036000830152620018678162001825565b9050919050565b7f4164726573732068617320616e642045737461626c6973686d656e742049442060008201527f616c6c726561647920726567697374657265642e000000000000000000000000602082015250565b6000620018cc60348362001481565b9150620018d9826200186e565b604082019050919050565b60006020820190508181036000830152620018ff81620018bd565b9050919050565b6000604082019050818103600083015262001922818562001492565b905062001933602083018462001285565b9392505050565b60008190508160005260206000209050919050565b60006020601f8301049050919050565b600082821b905092915050565b6000600883026200199e7fffffffffffffffffffffffffffffffffffffffffffffffffffffffffffffffff826200195f565b620019aa86836200195f565b95508019841693508086168417925050509392505050565b6000819050919050565b6000819050919050565b6000620019f7620019f1620019eb84620019c2565b620019cc565b620019c2565b9050919050565b6000819050919050565b62001a1383620019d6565b62001a2b62001a2282620019fe565b8484546200196c565b825550505050565b600090565b62001a4262001a33565b62001a4f81848462001a08565b505050565b5b8181101562001a775762001a6b60008262001a38565b60018101905062001a55565b5050565b601f82111562001ac65762001a90816200193a565b62001a9b846200194f565b8101602085101562001aab578190505b62001ac362001aba856200194f565b83018262001a54565b50505b505050565b600082821c905092915050565b600062001aeb6000198460080262001acb565b1980831691505092915050565b600062001b06838362001ad8565b9150826002028217905092915050565b62001b21826200112a565b67ffffffffffffffff81111562001b3d5762001b3c62000dd4565b5b62001b4982546200163c565b62001b5682828562001a7b565b600060209050601f83116001811462001b8e576000841562001b79578287015190505b62001b85858262001af8565b86555062001bf5565b601f19841662001b9e866200193a565b60005b8281101562001bc85784890151825560018201915060208501945060208101905062001ba1565b8683101562001be8578489015162001be4601f89168262001ad8565b8355505b6001600288020188555050505b505050505050565b7f4f776e61626c653a206e6577206f776e657220697320746865207a65726f206160008201527f6464726573730000000000000000000000000000000000000000000000000000602082015250565b600062001c5b60268362001481565b915062001c688262001bfd565b604082019050919050565b6000602082019050818103600083015262001c8e8162001c4c565b9050919050565b7f4f776e61626c653a2063616c6c6572206973206e6f7420746865206f776e6572600082015250565b600062001ccd60208362001481565b915062001cda8262001c95565b602082019050919050565b6000602082019050818103600083015262001d008162001cbe565b905091905056fe60806040523480156200001157600080fd5b506040516200171a3803806200171a8339818101604052810190620000379190620004a0565b620000576200004b6200008260201b60201c565b6200008a60201b60201c565b816001908162000068919062000751565b506200007a816200014e60201b60201c565b505062000953565b600033905090565b60008060009054906101000a900473ffffffffffffffffffffffffffffffffffffffff169050816000806101000a81548173ffffffffffffffffffffffffffffffffffffffff021916908373ffffffffffffffffffffffffffffffffffffffff1602179055508173ffffffffffffffffffffffffffffffffffffffff168173ffffffffffffffffffffffffffffffffffffffff167f8be0079c531659141344cd1fd0a4f28419497f9722a3daafe3b4186f6b6457e060405160405180910390a35050565b6200015e620001e460201b60201c565b600073ffffffffffffffffffffffffffffffffffffffff168173ffffffffffffffffffffffffffffffffffffffff1603620001d0576040517f08c379a0000000000000000000000000000000000000000000000000000000008152600401620001c790620008bf565b60405180910390fd5b620001e1816200008a60201b60201c565b50565b620001f46200008260201b60201c565b73ffffffffffffffffffffffffffffffffffffffff166200021a6200027560201b60201c565b73ffffffffffffffffffffffffffffffffffffffff161462000273576040517f08c379a00000000000000000000000000000000000000000000000000000000081526004016200026a9062000931565b60405180910390fd5b565b60008060009054906101000a900473ffffffffffffffffffffffffffffffffffffffff16905090565b6000604051905090565b600080fd5b600080fd5b600080fd5b600080fd5b6000601f19601f8301169050919050565b7f4e487b7100000000000000000000000000000000000000000000000000000000600052604160045260246000fd5b6200030782620002bc565b810181811067ffffffffffffffff82111715620003295762000328620002cd565b5b80604052505050565b60006200033e6200029e565b90506200034c8282620002fc565b919050565b600067ffffffffffffffff8211156200036f576200036e620002cd565b5b6200037a82620002bc565b9050602081019050919050565b60005b83811015620003a75780820151818401526020810190506200038a565b83811115620003b7576000848401525b50505050565b6000620003d4620003ce8462000351565b62000332565b905082815260208101848484011115620003f357620003f2620002b7565b5b6200040084828562000387565b509392505050565b600082601f83011262000420576200041f620002b2565b5b815162000432848260208601620003bd565b91505092915050565b600073ffffffffffffffffffffffffffffffffffffffff82169050919050565b600062000468826200043b565b9050919050565b6200047a816200045b565b81146200048657600080fd5b50565b6000815190506200049a816200046f565b92915050565b60008060408385031215620004ba57620004b9620002a8565b5b600083015167ffffffffffffffff811115620004db57620004da620002ad565b5b620004e98582860162000408565b9250506020620004fc8582860162000489565b9150509250929050565b600081519050919050565b7f4e487b7100000000000000000000000000000000000000000000000000000000600052602260045260246000fd5b600060028204905060018216806200055957607f821691505b6020821081036200056f576200056e62000511565b5b50919050565b60008190508160005260206000209050919050565b60006020601f8301049050919050565b600082821b905092915050565b600060088302620005d97fffffffffffffffffffffffffffffffffffffffffffffffffffffffffffffffff826200059a565b620005e586836200059a565b95508019841693508086168417925050509392505050565b6000819050919050565b6000819050919050565b6000620006326200062c6200062684620005fd565b62000607565b620005fd565b9050919050565b6000819050919050565b6200064e8362000611565b620006666200065d8262000639565b848454620005a7565b825550505050565b600090565b6200067d6200066e565b6200068a81848462000643565b505050565b5b81811015620006b257620006a660008262000673565b60018101905062000690565b5050565b601f8211156200070157620006cb8162000575565b620006d6846200058a565b81016020851015620006e6578190505b620006fe620006f5856200058a565b8301826200068f565b50505b505050565b600082821c905092915050565b6000620007266000198460080262000706565b1980831691505092915050565b600062000741838362000713565b9150826002028217905092915050565b6200075c8262000506565b67ffffffffffffffff811115620007785762000777620002cd565b5b62000784825462000540565b62000791828285620006b6565b600060209050601f831160018114620007c95760008415620007b4578287015190505b620007c0858262000733565b86555062000830565b601f198416620007d98662000575565b60005b828110156200080357848901518255600182019150602085019450602081019050620007dc565b868310156200082357848901516200081f601f89168262000713565b8355505b6001600288020188555050505b505050505050565b600082825260208201905092915050565b7f4f776e61626c653a206e6577206f776e657220697320746865207a65726f206160008201527f6464726573730000000000000000000000000000000000000000000000000000602082015250565b6000620008a760268362000838565b9150620008b48262000849565b604082019050919050565b60006020820190508181036000830152620008da8162000898565b9050919050565b7f4f776e61626c653a2063616c6c6572206973206e6f7420746865206f776e6572600082015250565b60006200091960208362000838565b91506200092682620008e1565b602082019050919050565b600060208201905081810360008301526200094c816200090a565b9050919050565b610db780620009636000396000f3fe608060405234801561001057600080fd5b506004361061007d5760003560e01c8063b177e8b51161005b578063b177e8b5146100da578063c97d1a7a1461010a578063da4c931a14610128578063f2fde38b146101585761007d565b806368e9b6dc14610082578063715018a6146100b25780638da5cb5b146100bc575b600080fd5b61009c60048036038101906100979190610762565b610174565b6040516100a991906107c4565b60405180910390f35b6100ba6101a2565b005b6100c46101b6565b6040516100d19190610820565b60405180910390f35b6100f460048036038101906100ef9190610893565b6101df565b604051610101919061091d565b60405180910390f35b610112610322565b60405161011f91906109c0565b60405180910390f35b610142600480360381019061013d9190610762565b6103b0565b60405161014f91906107c4565b60405180910390f35b610172600480360381019061016d91906109e2565b61043b565b005b6002818051602081018201805184825260208301602085012081835280955050505050506000915090505481565b6101aa6104be565b6101b4600061053c565b565b60008060009054906101000a900473ffffffffffffffffffffffffffffffffffffffff16905090565b60008173ffffffffffffffffffffffffffffffffffffffff166102006101b6565b73ffffffffffffffffffffffffffffffffffffffff1614610256576040517f08c379a000000000000000000000000000000000000000000000000000000000815260040161024d90610a81565b60405180910390fd5b6000801b60028560405161026a9190610add565b908152602001604051809103902054146102b9576040517f08c379a00000000000000000000000000000000000000000000000000000000081526004016102b090610b40565b60405180910390fd5b826002856040516102ca9190610add565b9081526020016040518091039020819055507fbce1be642146948cd049502ee2e723fc29885f588ae7fb7825415a295678cb9142858560405161030f93929190610b79565b60405180910390a1600190509392505050565b6001805461032f90610be6565b80601f016020809104026020016040519081016040528092919081815260200182805461035b90610be6565b80156103a85780601f1061037d576101008083540402835291602001916103a8565b820191906000526020600020905b81548152906001019060200180831161038b57829003601f168201915b505050505081565b60008060001b6002836040516103c69190610add565b90815260200160405180910390205403610415576040517f08c379a000000000000000000000000000000000000000000000000000000000815260040161040c90610c63565b60405180910390fd5b6002826040516104259190610add565b9081526020016040518091039020549050919050565b6104436104be565b600073ffffffffffffffffffffffffffffffffffffffff168173ffffffffffffffffffffffffffffffffffffffff16036104b2576040517f08c379a00000000000000000000000000000000000000000000000000000000081526004016104a990610cf5565b60405180910390fd5b6104bb8161053c565b50565b6104c6610600565b73ffffffffffffffffffffffffffffffffffffffff166104e46101b6565b73ffffffffffffffffffffffffffffffffffffffff161461053a576040517f08c379a000000000000000000000000000000000000000000000000000000000815260040161053190610d61565b60405180910390fd5b565b60008060009054906101000a900473ffffffffffffffffffffffffffffffffffffffff169050816000806101000a81548173ffffffffffffffffffffffffffffffffffffffff021916908373ffffffffffffffffffffffffffffffffffffffff1602179055508173ffffffffffffffffffffffffffffffffffffffff168173ffffffffffffffffffffffffffffffffffffffff167f8be0079c531659141344cd1fd0a4f28419497f9722a3daafe3b4186f6b6457e060405160405180910390a35050565b600033905090565b6000604051905090565b600080fd5b600080fd5b600080fd5b600080fd5b6000601f19601f8301169050919050565b7f4e487b7100000000000000000000000000000000000000000000000000000000600052604160045260246000fd5b61066f82610626565b810181811067ffffffffffffffff8211171561068e5761068d610637565b5b80604052505050565b60006106a1610608565b90506106ad8282610666565b919050565b600067ffffffffffffffff8211156106cd576106cc610637565b5b6106d682610626565b9050602081019050919050565b82818337600083830152505050565b6000610705610700846106b2565b610697565b90508281526020810184848401111561072157610720610621565b5b61072c8482856106e3565b509392505050565b600082601f8301126107495761074861061c565b5b81356107598482602086016106f2565b91505092915050565b60006020828403121561077857610777610612565b5b600082013567ffffffffffffffff81111561079657610795610617565b5b6107a284828501610734565b91505092915050565b6000819050919050565b6107be816107ab565b82525050565b60006020820190506107d960008301846107b5565b92915050565b600073ffffffffffffffffffffffffffffffffffffffff82169050919050565b600061080a826107df565b9050919050565b61081a816107ff565b82525050565b60006020820190506108356000830184610811565b92915050565b610844816107ab565b811461084f57600080fd5b50565b6000813590506108618161083b565b92915050565b610870816107ff565b811461087b57600080fd5b50565b60008135905061088d81610867565b92915050565b6000806000606084860312156108ac576108ab610612565b5b600084013567ffffffffffffffff8111156108ca576108c9610617565b5b6108d686828701610734565b93505060206108e786828701610852565b92505060406108f88682870161087e565b9150509250925092565b60008115159050919050565b61091781610902565b82525050565b6000602082019050610932600083018461090e565b92915050565b600081519050919050565b600082825260208201905092915050565b60005b83811015610972578082015181840152602081019050610957565b83811115610981576000848401525b50505050565b600061099282610938565b61099c8185610943565b93506109ac818560208601610954565b6109b581610626565b840191505092915050565b600060208201905081810360008301526109da8184610987565b905092915050565b6000602082840312156109f8576109f7610612565b5b6000610a068482850161087e565b91505092915050565b7f4f6e6c79206f776e65722063616e207265676973746572206120446f63756d6560008201527f6e74000000000000000000000000000000000000000000000000000000000000602082015250565b6000610a6b602283610943565b9150610a7682610a0f565b604082019050919050565b60006020820190508181036000830152610a9a81610a5e565b9050919050565b600081905092915050565b6000610ab782610938565b610ac18185610aa1565b9350610ad1818560208601610954565b80840191505092915050565b6000610ae98284610aac565b915081905092915050565b7f446f63756d656e7420616c6c7265616479207265676973746572656400000000600082015250565b6000610b2a601c83610943565b9150610b3582610af4565b602082019050919050565b60006020820190508181036000830152610b5981610b1d565b9050919050565b6000819050919050565b610b7381610b60565b82525050565b6000606082019050610b8e6000830186610b6a565b8181036020830152610ba08185610987565b9050610baf60408301846107b5565b949350505050565b7f4e487b7100000000000000000000000000000000000000000000000000000000600052602260045260246000fd5b60006002820490506001821680610bfe57607f821691505b602082108103610c1157610c10610bb7565b5b50919050565b7f446f63756d656e7420646f65736e742065786973740000000000000000000000600082015250565b6000610c4d601583610943565b9150610c5882610c17565b602082019050919050565b60006020820190508181036000830152610c7c81610c40565b9050919050565b7f4f776e61626c653a206e6577206f776e657220697320746865207a65726f206160008201527f6464726573730000000000000000000000000000000000000000000000000000602082015250565b6000610cdf602683610943565b9150610cea82610c83565b604082019050919050565b60006020820190508181036000830152610d0e81610cd2565b9050919050565b7f4f776e61626c653a2063616c6c6572206973206e6f7420746865206f776e6572600082015250565b6000610d4b602083610943565b9150610d5682610d15565b602082019050919050565b60006020820190508181036000830152610d7a81610d3e565b905091905056fea264697066735822122049f88259aee9b896425a57718a70bd02d0e1a2a4ee45178c26466a28e636a88c64736f6c634300080f0033a26469706673582212202b4277bbc2e6fc802acae0aa021a6af02a328b1431ccaab599dfbe48cb7bb2bf64736f6c634300080f0033",
  "immutableReferences": {},
  "source": "// SPDX-License-Identifier: GPL-3.0\r\npragma solidity ^0.8.4;\r\n\r\n\r\nimport \"@openzeppelin/contracts/access/Ownable.sol\";\r\n\r\ncontract EstablishmentAudit is Ownable{\r\n\r\n   event RecordAudited( uint256 timestamp , string documentId , bytes32 documentHash);\r\n   \r\n  /**\r\n    * @dev Establishment Identifier, name or CIF or Whatever\r\n    *  \r\n    */\r\n  string public EstablishmentId;\r\n\r\n  // Mapping from Document Id as string representation to Hash of Document content\r\n  mapping(string=>bytes32) public AuditLogs;\r\n   \r\n \r\n  constructor (string memory _establishmentId, address owner) {\r\n      EstablishmentId = _establishmentId;\r\n      transferOwnership(owner);\r\n  }\r\n  \r\n  /**\r\n    * @dev Register a document into the Audit\r\n    *  \r\n    */\r\n  function registerDocument(string memory documentId , bytes32 documentHash , address contractOwner) public returns(bool) {\r\n    require(  owner() == contractOwner ,  \"Only owner can register a Document\");\r\n\t require(  AuditLogs[documentId] == 0 ,  \"Document allready registered\");\r\n    AuditLogs[documentId] = documentHash;\r\n    emit RecordAudited(block.timestamp, documentId ,documentHash );\r\n    return true;\r\n  }\r\n\t\r\n\t\r\n  /**\r\n    * @dev Retrieve the hash of a document content for a specific Document Id\r\n    *  \r\n    */\r\n\tfunction getDocumentContentHash(string memory documentId ) public view returns(bytes32) {\r\n      require( AuditLogs[documentId] != 0,  \"Document doesnt exist\");\r\n\t\t  return AuditLogs[documentId];\r\n    }\r\n\t\r\n}\r\n\r\n\r\ncontract AuditManagement is Ownable{\r\n\r\n   \r\n   address[] private establishmentAudit;\r\n   string[]  private establishmentIds; \r\n   mapping(string=>address) private addressEstablishments;\r\n   mapping(address=>string) private addressIDEstablishments;\r\n\r\n\r\n   /**\r\n    * @dev Helper function to compare\r\n    */\r\n   function compareStrings(string memory a, string memory b) public pure returns (bool) {\r\n        return keccak256(abi.encodePacked(a)) == keccak256(abi.encodePacked(b));\r\n    }\r\n\r\n   /**\r\n    * @dev Add an establishment to Audit\r\n    */\r\n\r\n   function AddEstablishment(string memory establishmentID ,address owner ) public onlyOwner returns (bool success) {\r\n\t\trequire(addressEstablishments[establishmentID] == address(0), \"EstablishmentID has an adress already registered.\");\r\n\t\trequire( compareStrings(addressIDEstablishments[owner],\"\") == true , \"Adress has and Establishment ID allready registered.\");\r\n\t\taddress newEstablishment = address(new EstablishmentAudit(establishmentID,msg.sender));            \r\n\t\testablishmentAudit.push(newEstablishment);\r\n      establishmentIds.push(establishmentID);\r\n\t\taddressEstablishments[establishmentID] = newEstablishment;\r\n      addressIDEstablishments[owner] = establishmentID;\r\n\t\treturn true;\r\n    }\r\n   \r\n\r\n   /**\r\n    * @dev Get establishment Id for a address\r\n    */\r\n   function getStablishmentID(address owner ) public view returns (string memory) {\r\n        return addressIDEstablishments[owner];\r\n   }\r\n\r\n   /**\r\n    * @dev Add  an Audit Record \r\n    */\r\n  function registerAudit( string memory establishmentID , string memory documentId , bytes32  documentHash ) public returns(bool) {\r\n\t require(addressEstablishments[establishmentID] != address(0), \"Could not register Audit Record because Establishment doesnt exist\");\r\n    EstablishmentAudit(addressEstablishments[establishmentID]).registerDocument(documentId,documentHash,msg.sender);\r\n    return true;\r\n  }\r\n\r\n  \r\n   /**\r\n    * @dev Audit Record \r\n    */\r\n  function auditDocument( string memory establishmentID , string memory documentId ) public view  returns(bytes32) {\r\n\t require(addressEstablishments[establishmentID] != address(0), \"Establishment doesnt exist.\");\r\n    return EstablishmentAudit(addressEstablishments[establishmentID]).getDocumentContentHash(documentId);\r\n   }\r\n\r\n   /**\r\n    * @dev List the Deployed Contracts\r\n    */\r\n   function getDeployedChildContracts() public view returns (address[] memory) {\r\n      return establishmentAudit;\r\n   }\r\n\r\n  /**\r\n    * @dev List all Establishments\r\n    */\r\n   function listEstablishments() public view returns (string[] memory) {\r\n        return establishmentIds;\r\n   }\r\n}\r\n\r\n\r\n",
  "sourcePath": "C:\\Users\\herty\\Documents\\BlockChain\\Postgrado\\Proyecto Ethereum\\BSMWeb3Proyect\\contracts\\AuditManagement.sol",
  "compiler": {
    "name": "solc",
    "version": "0.8.15+commit.e14f2714.Emscripten.clang"
  },
  "schemaVersion": "3.4.8",
  "updatedAt": "2022-08-07T14:09:17.922Z",
  "networkType": "ethereum",
  "devdoc": {
    "kind": "dev",
    "methods": {
      "AddEstablishment(string,address)": {
        "details": "Add an establishment to Audit"
      },
      "auditDocument(string,string)": {
        "details": "Audit Record "
      },
      "compareStrings(string,string)": {
        "details": "Helper function to compare"
      },
      "getDeployedChildContracts()": {
        "details": "List the Deployed Contracts"
      },
      "getStablishmentID(address)": {
        "details": "Get establishment Id for a address"
      },
      "listEstablishments()": {
        "details": "List all Establishments"
      },
      "owner()": {
        "details": "Returns the address of the current owner."
      },
      "registerAudit(string,string,bytes32)": {
        "details": "Add  an Audit Record "
      },
      "renounceOwnership()": {
        "details": "Leaves the contract without owner. It will not be possible to call `onlyOwner` functions anymore. Can only be called by the current owner. NOTE: Renouncing ownership will leave the contract without an owner, thereby removing any functionality that is only available to the owner."
      },
      "transferOwnership(address)": {
        "details": "Transfers ownership of the contract to a new account (`newOwner`). Can only be called by the current owner."
      }
    },
    "version": 1
  },
  "userdoc": {
    "kind": "user",
    "methods": {},
    "version": 1
  }
}