{
  "contractName": "AuditManagement",
  "abi": [
    {
      "anonymous": false,
      "inputs": [
        {
          "indexed": true,
          "internalType": "address",
          "name": "previousOwner",
          "type": "address"
        },
        {
          "indexed": true,
          "internalType": "address",
          "name": "newOwner",
          "type": "address"
        }
      ],
      "name": "OwnershipTransferred",
      "type": "event"
    },
    {
      "inputs": [],
      "name": "owner",
      "outputs": [
        {
          "internalType": "address",
          "name": "",
          "type": "address"
        }
      ],
      "stateMutability": "view",
      "type": "function",
      "constant": true
    },
    {
      "inputs": [],
      "name": "renounceOwnership",
      "outputs": [],
      "stateMutability": "nonpayable",
      "type": "function"
    },
    {
      "inputs": [
        {
          "internalType": "address",
          "name": "newOwner",
          "type": "address"
        }
      ],
      "name": "transferOwnership",
      "outputs": [],
      "stateMutability": "nonpayable",
      "type": "function"
    },
    {
      "inputs": [
        {
          "internalType": "string",
          "name": "a",
          "type": "string"
        },
        {
          "internalType": "string",
          "name": "b",
          "type": "string"
        }
      ],
      "name": "compareStrings",
      "outputs": [
        {
          "internalType": "bool",
          "name": "",
          "type": "bool"
        }
      ],
      "stateMutability": "pure",
      "type": "function",
      "constant": true
    },
    {
      "inputs": [
        {
          "internalType": "string",
          "name": "establishmentID",
          "type": "string"
        },
        {
          "internalType": "address",
          "name": "owner",
          "type": "address"
        }
      ],
      "name": "AddEstablishment",
      "outputs": [
        {
          "internalType": "bool",
          "name": "success",
          "type": "bool"
        }
      ],
      "stateMutability": "nonpayable",
      "type": "function"
    },
    {
      "inputs": [
        {
          "internalType": "address",
          "name": "owner",
          "type": "address"
        }
      ],
      "name": "getStablishmentID",
      "outputs": [
        {
          "internalType": "string",
          "name": "",
          "type": "string"
        }
      ],
      "stateMutability": "view",
      "type": "function",
      "constant": true
    },
    {
      "inputs": [
        {
          "internalType": "string",
          "name": "establishmentID",
          "type": "string"
        }
      ],
      "name": "getContractAddressFromEstablishmentId",
      "outputs": [
        {
          "internalType": "address",
          "name": "",
          "type": "address"
        }
      ],
      "stateMutability": "view",
      "type": "function",
      "constant": true
    },
    {
      "inputs": [
        {
          "internalType": "string",
          "name": "establishmentID",
          "type": "string"
        },
        {
          "internalType": "string",
          "name": "documentId",
          "type": "string"
        },
        {
          "internalType": "bytes32",
          "name": "documentHash",
          "type": "bytes32"
        }
      ],
      "name": "registerAudit",
      "outputs": [
        {
          "internalType": "bool",
          "name": "",
          "type": "bool"
        }
      ],
      "stateMutability": "nonpayable",
      "type": "function"
    },
    {
      "inputs": [
        {
          "internalType": "string",
          "name": "establishmentID",
          "type": "string"
        },
        {
          "internalType": "string",
          "name": "documentId",
          "type": "string"
        }
      ],
      "name": "auditDocument",
      "outputs": [
        {
          "internalType": "bytes32",
          "name": "",
          "type": "bytes32"
        }
      ],
      "stateMutability": "view",
      "type": "function",
      "constant": true
    },
    {
      "inputs": [],
      "name": "getDeployedChildContracts",
      "outputs": [
        {
          "internalType": "address[]",
          "name": "",
          "type": "address[]"
        }
      ],
      "stateMutability": "view",
      "type": "function",
      "constant": true
    },
    {
      "inputs": [],
      "name": "getUserProfile",
      "outputs": [
        {
          "internalType": "string",
          "name": "",
          "type": "string"
        }
      ],
      "stateMutability": "view",
      "type": "function",
      "constant": true
    },
    {
      "inputs": [],
      "name": "listEstablishments",
      "outputs": [
        {
          "internalType": "string[]",
          "name": "",
          "type": "string[]"
        }
      ],
      "stateMutability": "view",
      "type": "function",
      "constant": true
    }
  ],
  "bytecode": "0x608060405234801561001057600080fd5b5061002d61002261003260201b60201c565b61003a60201b60201c565b6100fe565b600033905090565b60008060009054906101000a900473ffffffffffffffffffffffffffffffffffffffff169050816000806101000a81548173ffffffffffffffffffffffffffffffffffffffff021916908373ffffffffffffffffffffffffffffffffffffffff1602179055508173ffffffffffffffffffffffffffffffffffffffff168173ffffffffffffffffffffffffffffffffffffffff167f8be0079c531659141344cd1fd0a4f28419497f9722a3daafe3b4186f6b6457e060405160405180910390a35050565b613748806200010e6000396000f3fe60806040523480156200001157600080fd5b5060043610620000c45760003560e01c80638fd7153f116200007b5780638fd7153f1462000193578063aa04abd914620001c9578063bed34bba14620001ff578063d13b595f1462000235578063dfd469b1146200026b578063f2fde38b14620002a157620000c4565b8063361fe48914620000c9578063527596bf14620000ff5780636f61c7441462000121578063715018a614620001435780638287545f146200014f5780638da5cb5b1462000171575b600080fd5b620000e76004803603810190620000e19190620011bb565b620002c1565b604051620000f691906200125b565b60405180910390f35b620001096200043b565b6040516200011891906200137a565b60405180910390f35b6200012b620004cb565b6040516200013a919062001431565b60405180910390f35b6200014d620006b1565b005b62000159620006c9565b60405162000168919062001577565b60405180910390f35b6200017b620007ac565b6040516200018a9190620015ac565b60405180910390f35b620001b16004803603810190620001ab9190620015c9565b620007d5565b604051620001c09190620015ac565b60405180910390f35b620001e76004803603810190620001e191906200164b565b6200081f565b604051620001f6919062001702565b60405180910390f35b6200021d6004803603810190620002179190620011bb565b620009a3565b6040516200022c919062001702565b60405180910390f35b6200025360048036038101906200024d919062001750565b62000a00565b60405162000262919062001702565b60405180910390f35b620002896004803603810190620002839190620017b6565b62000d83565b60405162000298919062001431565b60405180910390f35b620002bf6004803603810190620002b99190620017b6565b62000e5c565b005b60008073ffffffffffffffffffffffffffffffffffffffff16600384604051620002ec91906200182a565b908152602001604051809103902060009054906101000a900473ffffffffffffffffffffffffffffffffffffffff1673ffffffffffffffffffffffffffffffffffffffff160362000374576040517f08c379a00000000000000000000000000000000000000000000000000000000081526004016200036b9062001893565b60405180910390fd5b6003836040516200038691906200182a565b908152602001604051809103902060009054906101000a900473ffffffffffffffffffffffffffffffffffffffff1673ffffffffffffffffffffffffffffffffffffffff1663da4c931a836040518263ffffffff1660e01b8152600401620003ef919062001431565b602060405180830381865afa1580156200040d573d6000803e3d6000fd5b505050506040513d601f19601f82011682018060405250810190620004339190620018cc565b905092915050565b60606001805480602002602001604051908101604052809291908181526020018280548015620004c157602002820191906000526020600020905b8160009054906101000a900473ffffffffffffffffffffffffffffffffffffffff1673ffffffffffffffffffffffffffffffffffffffff168152602001906001019080831162000476575b5050505050905090565b6060620004d7620007ac565b73ffffffffffffffffffffffffffffffffffffffff163373ffffffffffffffffffffffffffffffffffffffff160362000548576040518060400160405280600d81526020017f61646d696e6973747261746f72000000000000000000000000000000000000008152509050620006ae565b62000632600460003373ffffffffffffffffffffffffffffffffffffffff1673ffffffffffffffffffffffffffffffffffffffff168152602001908152602001600020805462000598906200192d565b80601f0160208091040260200160405190810160405280929190818152602001828054620005c6906200192d565b8015620006175780601f10620005eb5761010080835404028352916020019162000617565b820191906000526020600020905b815481529060010190602001808311620005f957829003601f168201915b505050505060405180602001604052806000815250620009a3565b62000675576040518060400160405280600481526020017f75736572000000000000000000000000000000000000000000000000000000008152509050620006ae565b6040518060400160405280600681526020017f766965776572000000000000000000000000000000000000000000000000000081525090505b90565b620006bb62000ee6565b620006c7600062000f6b565b565b60606002805480602002602001604051908101604052809291908181526020016000905b82821015620007a35783829060005260206000200180546200070f906200192d565b80601f01602080910402602001604051908101604052809291908181526020018280546200073d906200192d565b80156200078e5780601f1062000762576101008083540402835291602001916200078e565b820191906000526020600020905b8154815290600101906020018083116200077057829003601f168201915b505050505081526020019060010190620006ed565b50505050905090565b60008060009054906101000a900473ffffffffffffffffffffffffffffffffffffffff16905090565b6000600382604051620007e991906200182a565b908152602001604051809103902060009054906101000a900473ffffffffffffffffffffffffffffffffffffffff169050919050565b60008073ffffffffffffffffffffffffffffffffffffffff166003856040516200084a91906200182a565b908152602001604051809103902060009054906101000a900473ffffffffffffffffffffffffffffffffffffffff1673ffffffffffffffffffffffffffffffffffffffff1603620008d2576040517f08c379a0000000000000000000000000000000000000000000000000000000008152600401620008c990620019fe565b60405180910390fd5b600384604051620008e491906200182a565b908152602001604051809103902060009054906101000a900473ffffffffffffffffffffffffffffffffffffffff1673ffffffffffffffffffffffffffffffffffffffff1663b177e8b58484336040518463ffffffff1660e01b8152600401620009519392919062001a20565b6020604051808303816000875af115801562000971573d6000803e3d6000fd5b505050506040513d601f19601f8201168201806040525081019062000997919062001a95565b50600190509392505050565b600081604051602001620009b891906200182a565b6040516020818303038152906040528051906020012083604051602001620009e191906200182a565b6040516020818303038152906040528051906020012014905092915050565b600062000a0c62000ee6565b600073ffffffffffffffffffffffffffffffffffffffff1660038460405162000a3691906200182a565b908152602001604051809103902060009054906101000a900473ffffffffffffffffffffffffffffffffffffffff1673ffffffffffffffffffffffffffffffffffffffff161462000abe576040517f08c379a000000000000000000000000000000000000000000000000000000000815260040162000ab59062001b3d565b60405180910390fd5b6001151562000bac600460008573ffffffffffffffffffffffffffffffffffffffff1673ffffffffffffffffffffffffffffffffffffffff168152602001908152602001600020805462000b12906200192d565b80601f016020809104026020016040519081016040528092919081815260200182805462000b40906200192d565b801562000b915780601f1062000b655761010080835404028352916020019162000b91565b820191906000526020600020905b81548152906001019060200180831162000b7357829003601f168201915b505050505060405180602001604052806000815250620009a3565b15151462000bf1576040517f08c379a000000000000000000000000000000000000000000000000000000000815260040162000be89062001bd5565b60405180910390fd5b6000838360405162000c039062001037565b62000c1092919062001bf7565b604051809103906000f08015801562000c2d573d6000803e3d6000fd5b5090506001819080600181540180825580915050600190039060005260206000200160009091909190916101000a81548173ffffffffffffffffffffffffffffffffffffffff021916908373ffffffffffffffffffffffffffffffffffffffff16021790555060028490806001815401808255809150506001900390600052602060002001600090919091909150908162000cc9919062001e07565b508060038560405162000cdd91906200182a565b908152602001604051809103902060006101000a81548173ffffffffffffffffffffffffffffffffffffffff021916908373ffffffffffffffffffffffffffffffffffffffff16021790555083600460008573ffffffffffffffffffffffffffffffffffffffff1673ffffffffffffffffffffffffffffffffffffffff168152602001908152602001600020908162000d77919062001e07565b50600191505092915050565b6060600460008373ffffffffffffffffffffffffffffffffffffffff1673ffffffffffffffffffffffffffffffffffffffff168152602001908152602001600020805462000dd1906200192d565b80601f016020809104026020016040519081016040528092919081815260200182805462000dff906200192d565b801562000e505780601f1062000e245761010080835404028352916020019162000e50565b820191906000526020600020905b81548152906001019060200180831162000e3257829003601f168201915b50505050509050919050565b62000e6662000ee6565b600073ffffffffffffffffffffffffffffffffffffffff168173ffffffffffffffffffffffffffffffffffffffff160362000ed8576040517f08c379a000000000000000000000000000000000000000000000000000000000815260040162000ecf9062001f64565b60405180910390fd5b62000ee38162000f6b565b50565b62000ef06200102f565b73ffffffffffffffffffffffffffffffffffffffff1662000f10620007ac565b73ffffffffffffffffffffffffffffffffffffffff161462000f69576040517f08c379a000000000000000000000000000000000000000000000000000000000815260040162000f609062001fd6565b60405180910390fd5b565b60008060009054906101000a900473ffffffffffffffffffffffffffffffffffffffff169050816000806101000a81548173ffffffffffffffffffffffffffffffffffffffff021916908373ffffffffffffffffffffffffffffffffffffffff1602179055508173ffffffffffffffffffffffffffffffffffffffff168173ffffffffffffffffffffffffffffffffffffffff167f8be0079c531659141344cd1fd0a4f28419497f9722a3daafe3b4186f6b6457e060405160405180910390a35050565b600033905090565b61171a8062001ff983390190565b6000604051905090565b600080fd5b600080fd5b600080fd5b600080fd5b6000601f19601f8301169050919050565b7f4e487b7100000000000000000000000000000000000000000000000000000000600052604160045260246000fd5b620010ae8262001063565b810181811067ffffffffffffffff82111715620010d057620010cf62001074565b5b80604052505050565b6000620010e562001045565b9050620010f38282620010a3565b919050565b600067ffffffffffffffff82111562001116576200111562001074565b5b620011218262001063565b9050602081019050919050565b82818337600083830152505050565b6000620011546200114e84620010f8565b620010d9565b9050828152602081018484840111156200117357620011726200105e565b5b620011808482856200112e565b509392505050565b600082601f830112620011a0576200119f62001059565b5b8135620011b28482602086016200113d565b91505092915050565b60008060408385031215620011d557620011d46200104f565b5b600083013567ffffffffffffffff811115620011f657620011f562001054565b5b620012048582860162001188565b925050602083013567ffffffffffffffff81111562001228576200122762001054565b5b620012368582860162001188565b9150509250929050565b6000819050919050565b620012558162001240565b82525050565b60006020820190506200127260008301846200124a565b92915050565b600081519050919050565b600082825260208201905092915050565b6000819050602082019050919050565b600073ffffffffffffffffffffffffffffffffffffffff82169050919050565b6000620012d182620012a4565b9050919050565b620012e381620012c4565b82525050565b6000620012f78383620012d8565b60208301905092915050565b6000602082019050919050565b60006200131d8262001278565b62001329818562001283565b9350620013368362001294565b8060005b838110156200136d578151620013518882620012e9565b97506200135e8362001303565b9250506001810190506200133a565b5085935050505092915050565b6000602082019050818103600083015262001396818462001310565b905092915050565b600081519050919050565b600082825260208201905092915050565b60005b83811015620013da578082015181840152602081019050620013bd565b83811115620013ea576000848401525b50505050565b6000620013fd826200139e565b620014098185620013a9565b93506200141b818560208601620013ba565b620014268162001063565b840191505092915050565b600060208201905081810360008301526200144d8184620013f0565b905092915050565b600081519050919050565b600082825260208201905092915050565b6000819050602082019050919050565b600082825260208201905092915050565b60006200149f826200139e565b620014ab818562001481565b9350620014bd818560208601620013ba565b620014c88162001063565b840191505092915050565b6000620014e1838362001492565b905092915050565b6000602082019050919050565b6000620015038262001455565b6200150f818562001460565b935083602082028501620015238562001471565b8060005b85811015620015655784840389528151620015438582620014d3565b94506200155083620014e9565b925060208a0199505060018101905062001527565b50829750879550505050505092915050565b60006020820190508181036000830152620015938184620014f6565b905092915050565b620015a681620012c4565b82525050565b6000602082019050620015c360008301846200159b565b92915050565b600060208284031215620015e257620015e16200104f565b5b600082013567ffffffffffffffff81111562001603576200160262001054565b5b620016118482850162001188565b91505092915050565b620016258162001240565b81146200163157600080fd5b50565b60008135905062001645816200161a565b92915050565b6000806000606084860312156200166757620016666200104f565b5b600084013567ffffffffffffffff81111562001688576200168762001054565b5b620016968682870162001188565b935050602084013567ffffffffffffffff811115620016ba57620016b962001054565b5b620016c88682870162001188565b9250506040620016db8682870162001634565b9150509250925092565b60008115159050919050565b620016fc81620016e5565b82525050565b6000602082019050620017196000830184620016f1565b92915050565b6200172a81620012c4565b81146200173657600080fd5b50565b6000813590506200174a816200171f565b92915050565b600080604083850312156200176a57620017696200104f565b5b600083013567ffffffffffffffff8111156200178b576200178a62001054565b5b620017998582860162001188565b9250506020620017ac8582860162001739565b9150509250929050565b600060208284031215620017cf57620017ce6200104f565b5b6000620017df8482850162001739565b91505092915050565b600081905092915050565b600062001800826200139e565b6200180c8185620017e8565b93506200181e818560208601620013ba565b80840191505092915050565b6000620018388284620017f3565b915081905092915050565b7f45737461626c6973686d656e7420646f65736e742065786973742e0000000000600082015250565b60006200187b601b83620013a9565b9150620018888262001843565b602082019050919050565b60006020820190508181036000830152620018ae816200186c565b9050919050565b600081519050620018c6816200161a565b92915050565b600060208284031215620018e557620018e46200104f565b5b6000620018f584828501620018b5565b91505092915050565b7f4e487b7100000000000000000000000000000000000000000000000000000000600052602260045260246000fd5b600060028204905060018216806200194657607f821691505b6020821081036200195c576200195b620018fe565b5b50919050565b7f436f756c64206e6f74207265676973746572204175646974205265636f72642060008201527f626563617573652045737461626c6973686d656e7420646f65736e742065786960208201527f7374000000000000000000000000000000000000000000000000000000000000604082015250565b6000620019e6604283620013a9565b9150620019f38262001962565b606082019050919050565b6000602082019050818103600083015262001a1981620019d7565b9050919050565b6000606082019050818103600083015262001a3c8186620013f0565b905062001a4d60208301856200124a565b62001a5c60408301846200159b565b949350505050565b62001a6f81620016e5565b811462001a7b57600080fd5b50565b60008151905062001a8f8162001a64565b92915050565b60006020828403121562001aae5762001aad6200104f565b5b600062001abe8482850162001a7e565b91505092915050565b7f45737461626c6973686d656e7449442068617320616e2061647265737320616c60008201527f726561647920726567697374657265642e000000000000000000000000000000602082015250565b600062001b25603183620013a9565b915062001b328262001ac7565b604082019050919050565b6000602082019050818103600083015262001b588162001b16565b9050919050565b7f4164726573732068617320616e642045737461626c6973686d656e742049442060008201527f616c6c726561647920726567697374657265642e000000000000000000000000602082015250565b600062001bbd603483620013a9565b915062001bca8262001b5f565b604082019050919050565b6000602082019050818103600083015262001bf08162001bae565b9050919050565b6000604082019050818103600083015262001c138185620013f0565b905062001c2460208301846200159b565b9392505050565b60008190508160005260206000209050919050565b60006020601f8301049050919050565b600082821b905092915050565b60006008830262001c8f7fffffffffffffffffffffffffffffffffffffffffffffffffffffffffffffffff8262001c50565b62001c9b868362001c50565b95508019841693508086168417925050509392505050565b6000819050919050565b6000819050919050565b600062001ce862001ce262001cdc8462001cb3565b62001cbd565b62001cb3565b9050919050565b6000819050919050565b62001d048362001cc7565b62001d1c62001d138262001cef565b84845462001c5d565b825550505050565b600090565b62001d3362001d24565b62001d4081848462001cf9565b505050565b5b8181101562001d685762001d5c60008262001d29565b60018101905062001d46565b5050565b601f82111562001db75762001d818162001c2b565b62001d8c8462001c40565b8101602085101562001d9c578190505b62001db462001dab8562001c40565b83018262001d45565b50505b505050565b600082821c905092915050565b600062001ddc6000198460080262001dbc565b1980831691505092915050565b600062001df7838362001dc9565b9150826002028217905092915050565b62001e12826200139e565b67ffffffffffffffff81111562001e2e5762001e2d62001074565b5b62001e3a82546200192d565b62001e4782828562001d6c565b600060209050601f83116001811462001e7f576000841562001e6a578287015190505b62001e76858262001de9565b86555062001ee6565b601f19841662001e8f8662001c2b565b60005b8281101562001eb95784890151825560018201915060208501945060208101905062001e92565b8683101562001ed9578489015162001ed5601f89168262001dc9565b8355505b6001600288020188555050505b505050505050565b7f4f776e61626c653a206e6577206f776e657220697320746865207a65726f206160008201527f6464726573730000000000000000000000000000000000000000000000000000602082015250565b600062001f4c602683620013a9565b915062001f598262001eee565b604082019050919050565b6000602082019050818103600083015262001f7f8162001f3d565b9050919050565b7f4f776e61626c653a2063616c6c6572206973206e6f7420746865206f776e6572600082015250565b600062001fbe602083620013a9565b915062001fcb8262001f86565b602082019050919050565b6000602082019050818103600083015262001ff18162001faf565b905091905056fe60806040523480156200001157600080fd5b506040516200171a3803806200171a8339818101604052810190620000379190620004a0565b620000576200004b6200008260201b60201c565b6200008a60201b60201c565b816001908162000068919062000751565b506200007a816200014e60201b60201c565b505062000953565b600033905090565b60008060009054906101000a900473ffffffffffffffffffffffffffffffffffffffff169050816000806101000a81548173ffffffffffffffffffffffffffffffffffffffff021916908373ffffffffffffffffffffffffffffffffffffffff1602179055508173ffffffffffffffffffffffffffffffffffffffff168173ffffffffffffffffffffffffffffffffffffffff167f8be0079c531659141344cd1fd0a4f28419497f9722a3daafe3b4186f6b6457e060405160405180910390a35050565b6200015e620001e460201b60201c565b600073ffffffffffffffffffffffffffffffffffffffff168173ffffffffffffffffffffffffffffffffffffffff1603620001d0576040517f08c379a0000000000000000000000000000000000000000000000000000000008152600401620001c790620008bf565b60405180910390fd5b620001e1816200008a60201b60201c565b50565b620001f46200008260201b60201c565b73ffffffffffffffffffffffffffffffffffffffff166200021a6200027560201b60201c565b73ffffffffffffffffffffffffffffffffffffffff161462000273576040517f08c379a00000000000000000000000000000000000000000000000000000000081526004016200026a9062000931565b60405180910390fd5b565b60008060009054906101000a900473ffffffffffffffffffffffffffffffffffffffff16905090565b6000604051905090565b600080fd5b600080fd5b600080fd5b600080fd5b6000601f19601f8301169050919050565b7f4e487b7100000000000000000000000000000000000000000000000000000000600052604160045260246000fd5b6200030782620002bc565b810181811067ffffffffffffffff82111715620003295762000328620002cd565b5b80604052505050565b60006200033e6200029e565b90506200034c8282620002fc565b919050565b600067ffffffffffffffff8211156200036f576200036e620002cd565b5b6200037a82620002bc565b9050602081019050919050565b60005b83811015620003a75780820151818401526020810190506200038a565b83811115620003b7576000848401525b50505050565b6000620003d4620003ce8462000351565b62000332565b905082815260208101848484011115620003f357620003f2620002b7565b5b6200040084828562000387565b509392505050565b600082601f83011262000420576200041f620002b2565b5b815162000432848260208601620003bd565b91505092915050565b600073ffffffffffffffffffffffffffffffffffffffff82169050919050565b600062000468826200043b565b9050919050565b6200047a816200045b565b81146200048657600080fd5b50565b6000815190506200049a816200046f565b92915050565b60008060408385031215620004ba57620004b9620002a8565b5b600083015167ffffffffffffffff811115620004db57620004da620002ad565b5b620004e98582860162000408565b9250506020620004fc8582860162000489565b9150509250929050565b600081519050919050565b7f4e487b7100000000000000000000000000000000000000000000000000000000600052602260045260246000fd5b600060028204905060018216806200055957607f821691505b6020821081036200056f576200056e62000511565b5b50919050565b60008190508160005260206000209050919050565b60006020601f8301049050919050565b600082821b905092915050565b600060088302620005d97fffffffffffffffffffffffffffffffffffffffffffffffffffffffffffffffff826200059a565b620005e586836200059a565b95508019841693508086168417925050509392505050565b6000819050919050565b6000819050919050565b6000620006326200062c6200062684620005fd565b62000607565b620005fd565b9050919050565b6000819050919050565b6200064e8362000611565b620006666200065d8262000639565b848454620005a7565b825550505050565b600090565b6200067d6200066e565b6200068a81848462000643565b505050565b5b81811015620006b257620006a660008262000673565b60018101905062000690565b5050565b601f8211156200070157620006cb8162000575565b620006d6846200058a565b81016020851015620006e6578190505b620006fe620006f5856200058a565b8301826200068f565b50505b505050565b600082821c905092915050565b6000620007266000198460080262000706565b1980831691505092915050565b600062000741838362000713565b9150826002028217905092915050565b6200075c8262000506565b67ffffffffffffffff811115620007785762000777620002cd565b5b62000784825462000540565b62000791828285620006b6565b600060209050601f831160018114620007c95760008415620007b4578287015190505b620007c0858262000733565b86555062000830565b601f198416620007d98662000575565b60005b828110156200080357848901518255600182019150602085019450602081019050620007dc565b868310156200082357848901516200081f601f89168262000713565b8355505b6001600288020188555050505b505050505050565b600082825260208201905092915050565b7f4f776e61626c653a206e6577206f776e657220697320746865207a65726f206160008201527f6464726573730000000000000000000000000000000000000000000000000000602082015250565b6000620008a760268362000838565b9150620008b48262000849565b604082019050919050565b60006020820190508181036000830152620008da8162000898565b9050919050565b7f4f776e61626c653a2063616c6c6572206973206e6f7420746865206f776e6572600082015250565b60006200091960208362000838565b91506200092682620008e1565b602082019050919050565b600060208201905081810360008301526200094c816200090a565b9050919050565b610db780620009636000396000f3fe608060405234801561001057600080fd5b506004361061007d5760003560e01c8063b177e8b51161005b578063b177e8b5146100da578063c97d1a7a1461010a578063da4c931a14610128578063f2fde38b146101585761007d565b806368e9b6dc14610082578063715018a6146100b25780638da5cb5b146100bc575b600080fd5b61009c60048036038101906100979190610762565b610174565b6040516100a991906107c4565b60405180910390f35b6100ba6101a2565b005b6100c46101b6565b6040516100d19190610820565b60405180910390f35b6100f460048036038101906100ef9190610893565b6101df565b604051610101919061091d565b60405180910390f35b610112610322565b60405161011f91906109c0565b60405180910390f35b610142600480360381019061013d9190610762565b6103b0565b60405161014f91906107c4565b60405180910390f35b610172600480360381019061016d91906109e2565b61043b565b005b6002818051602081018201805184825260208301602085012081835280955050505050506000915090505481565b6101aa6104be565b6101b4600061053c565b565b60008060009054906101000a900473ffffffffffffffffffffffffffffffffffffffff16905090565b60008173ffffffffffffffffffffffffffffffffffffffff166102006101b6565b73ffffffffffffffffffffffffffffffffffffffff1614610256576040517f08c379a000000000000000000000000000000000000000000000000000000000815260040161024d90610a81565b60405180910390fd5b6000801b60028560405161026a9190610add565b908152602001604051809103902054146102b9576040517f08c379a00000000000000000000000000000000000000000000000000000000081526004016102b090610b40565b60405180910390fd5b826002856040516102ca9190610add565b9081526020016040518091039020819055507fbce1be642146948cd049502ee2e723fc29885f588ae7fb7825415a295678cb9142858560405161030f93929190610b79565b60405180910390a1600190509392505050565b6001805461032f90610be6565b80601f016020809104026020016040519081016040528092919081815260200182805461035b90610be6565b80156103a85780601f1061037d576101008083540402835291602001916103a8565b820191906000526020600020905b81548152906001019060200180831161038b57829003601f168201915b505050505081565b60008060001b6002836040516103c69190610add565b90815260200160405180910390205403610415576040517f08c379a000000000000000000000000000000000000000000000000000000000815260040161040c90610c63565b60405180910390fd5b6002826040516104259190610add565b9081526020016040518091039020549050919050565b6104436104be565b600073ffffffffffffffffffffffffffffffffffffffff168173ffffffffffffffffffffffffffffffffffffffff16036104b2576040517f08c379a00000000000000000000000000000000000000000000000000000000081526004016104a990610cf5565b60405180910390fd5b6104bb8161053c565b50565b6104c6610600565b73ffffffffffffffffffffffffffffffffffffffff166104e46101b6565b73ffffffffffffffffffffffffffffffffffffffff161461053a576040517f08c379a000000000000000000000000000000000000000000000000000000000815260040161053190610d61565b60405180910390fd5b565b60008060009054906101000a900473ffffffffffffffffffffffffffffffffffffffff169050816000806101000a81548173ffffffffffffffffffffffffffffffffffffffff021916908373ffffffffffffffffffffffffffffffffffffffff1602179055508173ffffffffffffffffffffffffffffffffffffffff168173ffffffffffffffffffffffffffffffffffffffff167f8be0079c531659141344cd1fd0a4f28419497f9722a3daafe3b4186f6b6457e060405160405180910390a35050565b600033905090565b6000604051905090565b600080fd5b600080fd5b600080fd5b600080fd5b6000601f19601f8301169050919050565b7f4e487b7100000000000000000000000000000000000000000000000000000000600052604160045260246000fd5b61066f82610626565b810181811067ffffffffffffffff8211171561068e5761068d610637565b5b80604052505050565b60006106a1610608565b90506106ad8282610666565b919050565b600067ffffffffffffffff8211156106cd576106cc610637565b5b6106d682610626565b9050602081019050919050565b82818337600083830152505050565b6000610705610700846106b2565b610697565b90508281526020810184848401111561072157610720610621565b5b61072c8482856106e3565b509392505050565b600082601f8301126107495761074861061c565b5b81356107598482602086016106f2565b91505092915050565b60006020828403121561077857610777610612565b5b600082013567ffffffffffffffff81111561079657610795610617565b5b6107a284828501610734565b91505092915050565b6000819050919050565b6107be816107ab565b82525050565b60006020820190506107d960008301846107b5565b92915050565b600073ffffffffffffffffffffffffffffffffffffffff82169050919050565b600061080a826107df565b9050919050565b61081a816107ff565b82525050565b60006020820190506108356000830184610811565b92915050565b610844816107ab565b811461084f57600080fd5b50565b6000813590506108618161083b565b92915050565b610870816107ff565b811461087b57600080fd5b50565b60008135905061088d81610867565b92915050565b6000806000606084860312156108ac576108ab610612565b5b600084013567ffffffffffffffff8111156108ca576108c9610617565b5b6108d686828701610734565b93505060206108e786828701610852565b92505060406108f88682870161087e565b9150509250925092565b60008115159050919050565b61091781610902565b82525050565b6000602082019050610932600083018461090e565b92915050565b600081519050919050565b600082825260208201905092915050565b60005b83811015610972578082015181840152602081019050610957565b83811115610981576000848401525b50505050565b600061099282610938565b61099c8185610943565b93506109ac818560208601610954565b6109b581610626565b840191505092915050565b600060208201905081810360008301526109da8184610987565b905092915050565b6000602082840312156109f8576109f7610612565b5b6000610a068482850161087e565b91505092915050565b7f4f6e6c79206f776e65722063616e207265676973746572206120446f63756d6560008201527f6e74000000000000000000000000000000000000000000000000000000000000602082015250565b6000610a6b602283610943565b9150610a7682610a0f565b604082019050919050565b60006020820190508181036000830152610a9a81610a5e565b9050919050565b600081905092915050565b6000610ab782610938565b610ac18185610aa1565b9350610ad1818560208601610954565b80840191505092915050565b6000610ae98284610aac565b915081905092915050565b7f446f63756d656e7420616c6c7265616479207265676973746572656400000000600082015250565b6000610b2a601c83610943565b9150610b3582610af4565b602082019050919050565b60006020820190508181036000830152610b5981610b1d565b9050919050565b6000819050919050565b610b7381610b60565b82525050565b6000606082019050610b8e6000830186610b6a565b8181036020830152610ba08185610987565b9050610baf60408301846107b5565b949350505050565b7f4e487b7100000000000000000000000000000000000000000000000000000000600052602260045260246000fd5b60006002820490506001821680610bfe57607f821691505b602082108103610c1157610c10610bb7565b5b50919050565b7f446f63756d656e7420646f65736e742065786973740000000000000000000000600082015250565b6000610c4d601583610943565b9150610c5882610c17565b602082019050919050565b60006020820190508181036000830152610c7c81610c40565b9050919050565b7f4f776e61626c653a206e6577206f776e657220697320746865207a65726f206160008201527f6464726573730000000000000000000000000000000000000000000000000000602082015250565b6000610cdf602683610943565b9150610cea82610c83565b604082019050919050565b60006020820190508181036000830152610d0e81610cd2565b9050919050565b7f4f776e61626c653a2063616c6c6572206973206e6f7420746865206f776e6572600082015250565b6000610d4b602083610943565b9150610d5682610d15565b602082019050919050565b60006020820190508181036000830152610d7a81610d3e565b905091905056fea264697066735822122046f49222db9bc437de630a286f828deac3ae973bc429056c8cd3d87b0de18a4764736f6c634300080f0033a264697066735822122006f7fe44947ac5af4128680b43f5cd4ff4fc7ff1090f9b63ad843ad464e40cd264736f6c634300080f0033",
  "immutableReferences": {},
  "source": "// SPDX-License-Identifier: GPL-3.0\r\npragma solidity ^0.8.4;\r\n\r\n\r\nimport \"@openzeppelin/contracts/access/Ownable.sol\";\r\n\r\ncontract EstablishmentAudit is Ownable{\r\n\r\n   event RecordAudited( uint256 timestamp , string documentId , bytes32 documentHash);\r\n   \r\n  /**\r\n    * @dev Establishment Identifier, name or CIF or Whatever\r\n    *  \r\n    */\r\n  string public EstablishmentId;\r\n\r\n  // Mapping from Document Id as string representation to Hash of Document content\r\n  mapping(string=>bytes32) public AuditLogs;\r\n   \r\n \r\n  constructor (string memory _establishmentId, address owner) {\r\n      EstablishmentId = _establishmentId;\r\n      transferOwnership(owner);\r\n  }\r\n  \r\n  /**\r\n    * @dev Register a document into the Audit\r\n    *  \r\n    */\r\n  function registerDocument(string memory documentId , bytes32 documentHash , address contractOwner) public returns(bool) {\r\n    require(  owner() == contractOwner ,  \"Only owner can register a Document\");\r\n\t  require(  AuditLogs[documentId] == 0 ,  \"Document allready registered\");\r\n    AuditLogs[documentId] = documentHash;\r\n    emit RecordAudited(block.timestamp, documentId ,documentHash );\r\n    return true;\r\n  }\r\n\t\r\n\t\r\n  /**\r\n    * @dev Retrieve the hash of a document content for a specific Document Id\r\n    *  \r\n    */\r\n\tfunction getDocumentContentHash(string memory documentId ) public view returns(bytes32) {\r\n      require( AuditLogs[documentId] != 0,  \"Document doesnt exist\");\r\n\t\t  return AuditLogs[documentId];\r\n    }\r\n\t\r\n}\r\n\r\n\r\ncontract AuditManagement is Ownable{\r\n\r\n   \r\n   \r\n   address[] private establishmentAudit;\r\n   string[]  private establishmentIds; \r\n   mapping(string=>address) private addressEstablishments;\r\n   mapping(address=>string) private addressIDEstablishments;\r\n\r\n\r\n   /**\r\n    * @dev Helper function to compare\r\n    */\r\n   function compareStrings(string memory a, string memory b) public pure returns (bool) {\r\n        return keccak256(abi.encodePacked(a)) == keccak256(abi.encodePacked(b));\r\n    }\r\n\r\n   /**\r\n    * @dev Add an establishment to Audit\r\n    */\r\n\r\n   function AddEstablishment(string memory establishmentID ,address owner ) public onlyOwner returns (bool success) {\r\n\t\trequire(addressEstablishments[establishmentID] == address(0), \"EstablishmentID has an adress already registered.\");\r\n\t\trequire( compareStrings(addressIDEstablishments[owner],\"\") == true , \"Adress has and Establishment ID allready registered.\");\r\n\t\taddress newEstablishment = address(new EstablishmentAudit(establishmentID,owner));            \r\n\t\testablishmentAudit.push(newEstablishment);\r\n      establishmentIds.push(establishmentID);\r\n\t\taddressEstablishments[establishmentID] = newEstablishment;\r\n      addressIDEstablishments[owner] = establishmentID;\r\n\t\treturn true;\r\n    }\r\n   \r\n\r\n   /**\r\n    * @dev Get establishment Id from a address\r\n    */\r\n   function getStablishmentID(address owner ) public view returns (string memory) {\r\n        return addressIDEstablishments[owner];\r\n   }\r\n\r\n    /**\r\n    * @dev Get subcontract Adress from establishmentID \r\n    */\r\n   function getContractAddressFromEstablishmentId(string memory establishmentID ) public view returns (address) {\r\n        return addressEstablishments[establishmentID];\r\n   }\r\n\r\n   /**\r\n    * @dev Add  an Audit Record \r\n    */\r\n  function registerAudit( string memory establishmentID , string memory documentId , bytes32  documentHash ) public returns(bool) {\r\n\t require(addressEstablishments[establishmentID] != address(0), \"Could not register Audit Record because Establishment doesnt exist\");\r\n    EstablishmentAudit(addressEstablishments[establishmentID]).registerDocument(documentId,documentHash,msg.sender);\r\n    return true;\r\n  }\r\n\r\n  \r\n   /**\r\n    * @dev Audit Record \r\n    */\r\n  function auditDocument( string memory establishmentID , string memory documentId ) public view  returns(bytes32) {\r\n\t require(addressEstablishments[establishmentID] != address(0), \"Establishment doesnt exist.\");\r\n    return EstablishmentAudit(addressEstablishments[establishmentID]).getDocumentContentHash(documentId);\r\n   }\r\n\r\n   /**\r\n    * @dev List the Deployed Contracts\r\n    */\r\n   function getDeployedChildContracts() public view returns (address[] memory) {\r\n      return establishmentAudit;\r\n   }\r\n\r\n    /**\r\n    * @dev get user profile\r\n    */\r\n   function getUserProfile() public view returns (string memory) {\r\n       \r\n      if(msg.sender == owner())\r\n        return 'administrator';\r\n\r\n      if( !compareStrings(addressIDEstablishments[msg.sender] , \"\" ))\r\n        return 'user';\r\n      \r\n      return 'viewer';\r\n   }\r\n\r\n    /**\r\n    * @dev List all Establishments\r\n    */\r\n    \r\n   function  listEstablishments() public view returns (string[] memory) {\r\n       \r\n        return establishmentIds;\r\n   }\r\n\r\n\r\n}\r\n\r\n\r\n",
  "sourcePath": "C:\\Users\\herty\\Documents\\BlockChain\\Postgrado\\Proyecto Ethereum\\BSMWeb3Proyect\\contracts\\AuditManagement.sol",
  "compiler": {
    "name": "solc",
    "version": "0.8.15+commit.e14f2714.Emscripten.clang"
  },
  "schemaVersion": "3.4.8",
  "updatedAt": "2022-09-01T15:56:34.370Z",
  "networkType": "ethereum",
  "devdoc": {
    "kind": "dev",
    "methods": {
      "AddEstablishment(string,address)": {
        "details": "Add an establishment to Audit"
      },
      "auditDocument(string,string)": {
        "details": "Audit Record "
      },
      "compareStrings(string,string)": {
        "details": "Helper function to compare"
      },
      "getContractAddressFromEstablishmentId(string)": {
        "details": "Get subcontract Adress from establishmentID "
      },
      "getDeployedChildContracts()": {
        "details": "List the Deployed Contracts"
      },
      "getStablishmentID(address)": {
        "details": "Get establishment Id from a address"
      },
      "getUserProfile()": {
        "details": "get user profile"
      },
      "listEstablishments()": {
        "details": "List all Establishments"
      },
      "owner()": {
        "details": "Returns the address of the current owner."
      },
      "registerAudit(string,string,bytes32)": {
        "details": "Add  an Audit Record "
      },
      "renounceOwnership()": {
        "details": "Leaves the contract without owner. It will not be possible to call `onlyOwner` functions anymore. Can only be called by the current owner. NOTE: Renouncing ownership will leave the contract without an owner, thereby removing any functionality that is only available to the owner."
      },
      "transferOwnership(address)": {
        "details": "Transfers ownership of the contract to a new account (`newOwner`). Can only be called by the current owner."
      }
    },
    "version": 1
  },
  "userdoc": {
    "kind": "user",
    "methods": {},
    "version": 1
  }
}